{
  "_format": "hh-sol-artifact-1",
  "contractName": "FourFourFour",
  "sourceName": "contracts/FourFourFour.sol",
  "abi": [
    {
      "inputs": [],
      "stateMutability": "nonpayable",
      "type": "constructor"
    },
    {
      "anonymous": false,
      "inputs": [
        {
          "indexed": true,
          "internalType": "address",
          "name": "owner",
          "type": "address"
        },
        {
          "indexed": true,
          "internalType": "address",
          "name": "approved",
          "type": "address"
        },
        {
          "indexed": true,
          "internalType": "uint256",
          "name": "tokenId",
          "type": "uint256"
        }
      ],
      "name": "Approval",
      "type": "event"
    },
    {
      "anonymous": false,
      "inputs": [
        {
          "indexed": true,
          "internalType": "address",
          "name": "owner",
          "type": "address"
        },
        {
          "indexed": true,
          "internalType": "address",
          "name": "operator",
          "type": "address"
        },
        {
          "indexed": false,
          "internalType": "bool",
          "name": "approved",
          "type": "bool"
        }
      ],
      "name": "ApprovalForAll",
      "type": "event"
    },
    {
      "anonymous": false,
      "inputs": [
        {
          "indexed": true,
          "internalType": "address",
          "name": "previousOwner",
          "type": "address"
        },
        {
          "indexed": true,
          "internalType": "address",
          "name": "newOwner",
          "type": "address"
        }
      ],
      "name": "OwnershipTransferred",
      "type": "event"
    },
    {
      "anonymous": false,
      "inputs": [
        {
          "indexed": true,
          "internalType": "address",
          "name": "from",
          "type": "address"
        },
        {
          "indexed": true,
          "internalType": "address",
          "name": "to",
          "type": "address"
        },
        {
          "indexed": true,
          "internalType": "uint256",
          "name": "tokenId",
          "type": "uint256"
        }
      ],
      "name": "Transfer",
      "type": "event"
    },
    {
      "inputs": [],
      "name": "FourProvenance",
      "outputs": [
        {
          "internalType": "string",
          "name": "",
          "type": "string"
        }
      ],
      "stateMutability": "view",
      "type": "function"
    },
    {
      "inputs": [
        {
          "internalType": "address",
          "name": "to",
          "type": "address"
        },
        {
          "internalType": "uint256",
          "name": "tokenId",
          "type": "uint256"
        }
      ],
      "name": "approve",
      "outputs": [],
      "stateMutability": "nonpayable",
      "type": "function"
    },
    {
      "inputs": [
        {
          "internalType": "address",
          "name": "owner",
          "type": "address"
        }
      ],
      "name": "balanceOf",
      "outputs": [
        {
          "internalType": "uint256",
          "name": "",
          "type": "uint256"
        }
      ],
      "stateMutability": "view",
      "type": "function"
    },
    {
      "inputs": [],
      "name": "baseURI",
      "outputs": [
        {
          "internalType": "string",
          "name": "",
          "type": "string"
        }
      ],
      "stateMutability": "view",
      "type": "function"
    },
    {
      "inputs": [],
      "name": "flipPremintState",
      "outputs": [],
      "stateMutability": "nonpayable",
      "type": "function"
    },
    {
      "inputs": [],
      "name": "flipSaleState",
      "outputs": [],
      "stateMutability": "nonpayable",
      "type": "function"
    },
    {
      "inputs": [],
      "name": "flipStoreIsOpen",
      "outputs": [],
      "stateMutability": "nonpayable",
      "type": "function"
    },
    {
      "inputs": [],
      "name": "flipWhitelist",
      "outputs": [],
      "stateMutability": "nonpayable",
      "type": "function"
    },
    {
      "inputs": [
        {
          "internalType": "uint256",
          "name": "tokenId",
          "type": "uint256"
        }
      ],
      "name": "getApproved",
      "outputs": [
        {
          "internalType": "address",
          "name": "",
          "type": "address"
        }
      ],
      "stateMutability": "view",
      "type": "function"
    },
    {
      "inputs": [
        {
          "internalType": "address",
          "name": "owner",
          "type": "address"
        },
        {
          "internalType": "address",
          "name": "operator",
          "type": "address"
        }
      ],
      "name": "isApprovedForAll",
      "outputs": [
        {
          "internalType": "bool",
          "name": "",
          "type": "bool"
        }
      ],
      "stateMutability": "view",
      "type": "function"
    },
    {
      "inputs": [
        {
          "internalType": "uint256",
          "name": "numberOfTokens",
          "type": "uint256"
        }
      ],
      "name": "mainSaleMint",
      "outputs": [],
      "stateMutability": "payable",
      "type": "function"
    },
    {
      "inputs": [],
      "name": "maxNumPurchase",
      "outputs": [
        {
          "internalType": "uint256",
          "name": "",
          "type": "uint256"
        }
      ],
      "stateMutability": "view",
      "type": "function"
    },
    {
      "inputs": [],
      "name": "name",
      "outputs": [
        {
          "internalType": "string",
          "name": "",
          "type": "string"
        }
      ],
      "stateMutability": "view",
      "type": "function"
    },
    {
      "inputs": [],
      "name": "owner",
      "outputs": [
        {
          "internalType": "address",
          "name": "",
          "type": "address"
        }
      ],
      "stateMutability": "view",
      "type": "function"
    },
    {
      "inputs": [
        {
          "internalType": "uint256",
          "name": "tokenId",
          "type": "uint256"
        }
      ],
      "name": "ownerOf",
      "outputs": [
        {
          "internalType": "address",
          "name": "",
          "type": "address"
        }
      ],
      "stateMutability": "view",
      "type": "function"
    },
    {
      "inputs": [],
      "name": "premintPrice",
      "outputs": [
        {
          "internalType": "uint256",
          "name": "",
          "type": "uint256"
        }
      ],
      "stateMutability": "view",
      "type": "function"
    },
    {
      "inputs": [],
      "name": "presaleIsActive",
      "outputs": [
        {
          "internalType": "bool",
          "name": "",
          "type": "bool"
        }
      ],
      "stateMutability": "view",
      "type": "function"
    },
    {
      "inputs": [],
      "name": "presaleLimit",
      "outputs": [
        {
          "internalType": "uint256",
          "name": "",
          "type": "uint256"
        }
      ],
      "stateMutability": "view",
      "type": "function"
    },
    {
      "inputs": [
        {
          "internalType": "uint256",
          "name": "numberOfTokens",
          "type": "uint256"
        }
      ],
      "name": "presaleMint",
      "outputs": [],
      "stateMutability": "payable",
      "type": "function"
    },
    {
      "inputs": [],
      "name": "renounceOwnership",
      "outputs": [],
      "stateMutability": "nonpayable",
      "type": "function"
    },
    {
      "inputs": [
        {
          "internalType": "address",
          "name": "from",
          "type": "address"
        },
        {
          "internalType": "address",
          "name": "to",
          "type": "address"
        },
        {
          "internalType": "uint256",
          "name": "tokenId",
          "type": "uint256"
        }
      ],
      "name": "safeTransferFrom",
      "outputs": [],
      "stateMutability": "nonpayable",
      "type": "function"
    },
    {
      "inputs": [
        {
          "internalType": "address",
          "name": "from",
          "type": "address"
        },
        {
          "internalType": "address",
          "name": "to",
          "type": "address"
        },
        {
          "internalType": "uint256",
          "name": "tokenId",
          "type": "uint256"
        },
        {
          "internalType": "bytes",
          "name": "_data",
          "type": "bytes"
        }
      ],
      "name": "safeTransferFrom",
      "outputs": [],
      "stateMutability": "nonpayable",
      "type": "function"
    },
    {
      "inputs": [],
      "name": "saleIsActive",
      "outputs": [
        {
          "internalType": "bool",
          "name": "",
          "type": "bool"
        }
      ],
      "stateMutability": "view",
      "type": "function"
    },
    {
      "inputs": [],
      "name": "saleLimit",
      "outputs": [
        {
          "internalType": "uint256",
          "name": "",
          "type": "uint256"
        }
      ],
      "stateMutability": "view",
      "type": "function"
    },
    {
      "inputs": [],
      "name": "salePrice",
      "outputs": [
        {
          "internalType": "uint256",
          "name": "",
          "type": "uint256"
        }
      ],
      "stateMutability": "view",
      "type": "function"
    },
    {
      "inputs": [
        {
          "internalType": "address",
          "name": "operator",
          "type": "address"
        },
        {
          "internalType": "bool",
          "name": "approved",
          "type": "bool"
        }
      ],
      "name": "setApprovalForAll",
      "outputs": [],
      "stateMutability": "nonpayable",
      "type": "function"
    },
    {
      "inputs": [
        {
          "internalType": "string",
          "name": "baseURI",
          "type": "string"
        }
      ],
      "name": "setBaseURI",
      "outputs": [],
      "stateMutability": "nonpayable",
      "type": "function"
    },
    {
      "inputs": [
        {
          "internalType": "string",
          "name": "provenanceHash",
          "type": "string"
        }
      ],
      "name": "setProvenanceHash",
      "outputs": [],
      "stateMutability": "nonpayable",
      "type": "function"
    },
    {
      "inputs": [],
      "name": "storeIsOpen",
      "outputs": [
        {
          "internalType": "bool",
          "name": "",
          "type": "bool"
        }
      ],
      "stateMutability": "view",
      "type": "function"
    },
    {
      "inputs": [
        {
          "internalType": "bytes4",
          "name": "interfaceId",
          "type": "bytes4"
        }
      ],
      "name": "supportsInterface",
      "outputs": [
        {
          "internalType": "bool",
          "name": "",
          "type": "bool"
        }
      ],
      "stateMutability": "view",
      "type": "function"
    },
    {
      "inputs": [],
      "name": "symbol",
      "outputs": [
        {
          "internalType": "string",
          "name": "",
          "type": "string"
        }
      ],
      "stateMutability": "view",
      "type": "function"
    },
    {
      "inputs": [
        {
          "internalType": "uint256",
          "name": "index",
          "type": "uint256"
        }
      ],
      "name": "tokenByIndex",
      "outputs": [
        {
          "internalType": "uint256",
          "name": "",
          "type": "uint256"
        }
      ],
      "stateMutability": "view",
      "type": "function"
    },
    {
      "inputs": [
        {
          "internalType": "address",
          "name": "owner",
          "type": "address"
        },
        {
          "internalType": "uint256",
          "name": "index",
          "type": "uint256"
        }
      ],
      "name": "tokenOfOwnerByIndex",
      "outputs": [
        {
          "internalType": "uint256",
          "name": "",
          "type": "uint256"
        }
      ],
      "stateMutability": "view",
      "type": "function"
    },
    {
      "inputs": [
        {
          "internalType": "uint256",
          "name": "tokenId",
          "type": "uint256"
        }
      ],
      "name": "tokenURI",
      "outputs": [
        {
          "internalType": "string",
          "name": "",
          "type": "string"
        }
      ],
      "stateMutability": "view",
      "type": "function"
    },
    {
      "inputs": [
        {
          "internalType": "address",
          "name": "_owner",
          "type": "address"
        }
      ],
      "name": "tokensOfOwner",
      "outputs": [
        {
          "internalType": "uint256[]",
          "name": "",
          "type": "uint256[]"
        }
      ],
      "stateMutability": "view",
      "type": "function"
    },
    {
      "inputs": [],
      "name": "totalSupply",
      "outputs": [
        {
          "internalType": "uint256",
          "name": "",
          "type": "uint256"
        }
      ],
      "stateMutability": "view",
      "type": "function"
    },
    {
      "inputs": [
        {
          "internalType": "address",
          "name": "from",
          "type": "address"
        },
        {
          "internalType": "address",
          "name": "to",
          "type": "address"
        },
        {
          "internalType": "uint256",
          "name": "tokenId",
          "type": "uint256"
        }
      ],
      "name": "transferFrom",
      "outputs": [],
      "stateMutability": "nonpayable",
      "type": "function"
    },
    {
      "inputs": [
        {
          "internalType": "address",
          "name": "newOwner",
          "type": "address"
        }
      ],
      "name": "transferOwnership",
      "outputs": [],
      "stateMutability": "nonpayable",
      "type": "function"
    },
    {
      "inputs": [
        {
          "internalType": "address",
          "name": "_whitelistedAddress",
          "type": "address"
        }
      ],
      "name": "verifyUser",
      "outputs": [
        {
          "internalType": "bool",
          "name": "",
          "type": "bool"
        }
      ],
      "stateMutability": "view",
      "type": "function"
    },
    {
      "inputs": [
        {
          "internalType": "address[]",
          "name": "users",
          "type": "address[]"
        }
      ],
      "name": "whitelistAddress",
      "outputs": [],
      "stateMutability": "nonpayable",
      "type": "function"
    },
    {
      "inputs": [],
      "name": "whitelistEnabled",
      "outputs": [
        {
          "internalType": "bool",
          "name": "",
          "type": "bool"
        }
      ],
      "stateMutability": "view",
      "type": "function"
    },
    {
      "inputs": [],
      "name": "withdrawAll",
      "outputs": [],
      "stateMutability": "payable",
      "type": "function"
    }
  ],
  "bytecode": "0x608060405273177d785412484dbc346a9cc56e0eac4f156aa911600b60006101000a81548173ffffffffffffffffffffffffffffffffffffffff021916908373ffffffffffffffffffffffffffffffffffffffff16021790555073b6e745efd6ca1cbc43be0987145c1e1bec161675600c60006101000a81548173ffffffffffffffffffffffffffffffffffffffff021916908373ffffffffffffffffffffffffffffffffffffffff160217905550732fbe4c67ef61907a67a2b6e7713694193a76ff22600d60006101000a81548173ffffffffffffffffffffffffffffffffffffffff021916908373ffffffffffffffffffffffffffffffffffffffff16021790555073200c7e1835fa4abc3a174ad299e6cdf65604af9c600e60006101000a81548173ffffffffffffffffffffffffffffffffffffffff021916908373ffffffffffffffffffffffffffffffffffffffff160217905550734ab8ddd9b20525277360f71a178214222115ab27600f60006101000a81548173ffffffffffffffffffffffffffffffffffffffff021916908373ffffffffffffffffffffffffffffffffffffffff16021790555073fc7868c430bd6dc9a3a59e5131a78c09a40c017e601060006101000a81548173ffffffffffffffffffffffffffffffffffffffff021916908373ffffffffffffffffffffffffffffffffffffffff16021790555073cf79f8191b8373acac5ea1c67c6228e8a08e59e6601160006101000a81548173ffffffffffffffffffffffffffffffffffffffff021916908373ffffffffffffffffffffffffffffffffffffffff1602179055506000601160146101000a81548160ff0219169083151502179055506000601160156101000a81548160ff0219169083151502179055506000601160166101000a81548160ff0219169083151502179055506001601160176101000a81548160ff0219169083151502179055506040518060200160405280600081525060129080519060200190620002ea92919062000ff6565b50348015620002f857600080fd5b506040518060400160405280600c81526020017f466f7572466f7572466f757200000000000000000000000000000000000000008152506040518060400160405280600481526020017f464f5552000000000000000000000000000000000000000000000000000000008152506200037d6301ffc9a760e01b620004de60201b60201c565b81600690805190602001906200039592919062000ff6565b508060079080519060200190620003ae92919062000ff6565b50620003c76380ac58cd60e01b620004de60201b60201c565b620003df635b5e139f60e01b620004de60201b60201c565b620003f763780e9d6360e01b620004de60201b60201c565b505060006200040b620005e760201b60201c565b905080600a60006101000a81548173ffffffffffffffffffffffffffffffffffffffff021916908373ffffffffffffffffffffffffffffffffffffffff1602179055508073ffffffffffffffffffffffffffffffffffffffff16600073ffffffffffffffffffffffffffffffffffffffff167f8be0079c531659141344cd1fd0a4f28419497f9722a3daafe3b4186f6b6457e060405160405180910390a35060005b600a811015620004d757620004c93382620005ef60201b60201c565b8080600101915050620004ad565b506200109c565b63ffffffff60e01b817bffffffffffffffffffffffffffffffffffffffffffffffffffffffff191614156200057b576040517f08c379a000000000000000000000000000000000000000000000000000000000815260040180806020018281038252601c8152602001807f4552433136353a20696e76616c696420696e746572666163652069640000000081525060200191505060405180910390fd5b6001600080837bffffffffffffffffffffffffffffffffffffffffffffffffffffffff19167bffffffffffffffffffffffffffffffffffffffffffffffffffffffff1916815260200190815260200160002060006101000a81548160ff02191690831515021790555050565b600033905090565b620006118282604051806020016040528060008152506200061560201b60201c565b5050565b6200062783836200069860201b60201c565b6200063c6000848484620008ac60201b60201c565b62000693576040517f08c379a000000000000000000000000000000000000000000000000000000000815260040180806020018281038252603281526020018062005c4d6032913960400191505060405180910390fd5b505050565b600073ffffffffffffffffffffffffffffffffffffffff168273ffffffffffffffffffffffffffffffffffffffff1614156200073c576040517f08c379a00000000000000000000000000000000000000000000000000000000081526004018080602001828103825260208152602001807f4552433732313a206d696e7420746f20746865207a65726f206164647265737381525060200191505060405180910390fd5b6200074d8162000ae860201b60201c565b15620007c1576040517f08c379a000000000000000000000000000000000000000000000000000000000815260040180806020018281038252601c8152602001807f4552433732313a20746f6b656e20616c7265616479206d696e7465640000000081525060200191505060405180910390fd5b620007d56000838362000b0c60201b60201c565b6200082d81600160008573ffffffffffffffffffffffffffffffffffffffff1673ffffffffffffffffffffffffffffffffffffffff16815260200190815260200160002062000b1160201b620033681790919060201c565b506200084b8183600262000b3360201b62003382179092919060201c565b50808273ffffffffffffffffffffffffffffffffffffffff16600073ffffffffffffffffffffffffffffffffffffffff167fddf252ad1be2c89b69c2b068fc378daa952ba7f163c4a11628f55a4df523b3ef60405160405180910390a45050565b6000620008da8473ffffffffffffffffffffffffffffffffffffffff1662000b7060201b620033b71760201c565b620008e9576001905062000ae0565b606062000a6663150b7a0260e01b62000907620005e760201b60201c565b888787604051602401808573ffffffffffffffffffffffffffffffffffffffff1681526020018473ffffffffffffffffffffffffffffffffffffffff16815260200183815260200180602001828103825283818151815260200191508051906020019080838360005b838110156200098d57808201518184015260208101905062000970565b50505050905090810190601f168015620009bb5780820380516001836020036101000a031916815260200191505b5095505050505050604051602081830303815290604052907bffffffffffffffffffffffffffffffffffffffffffffffffffffffff19166020820180517bffffffffffffffffffffffffffffffffffffffffffffffffffffffff838183161783525050505060405180606001604052806032815260200162005c4d603291398773ffffffffffffffffffffffffffffffffffffffff1662000b8360201b620033ca179092919060201c565b9050600081806020019051602081101562000a8057600080fd5b8101908080519060200190929190505050905063150b7a0260e01b7bffffffffffffffffffffffffffffffffffffffffffffffffffffffff1916817bffffffffffffffffffffffffffffffffffffffffffffffffffffffff191614925050505b949350505050565b600062000b0582600262000ba360201b620033e21790919060201c565b9050919050565b505050565b600062000b2b836000018360001b62000bc560201b60201c565b905092915050565b600062000b67846000018460001b8473ffffffffffffffffffffffffffffffffffffffff1660001b62000c3f60201b60201c565b90509392505050565b600080823b905060008111915050919050565b606062000b9a848460008562000d1e60201b60201c565b90509392505050565b600062000bbd836000018360001b62000ede60201b60201c565b905092915050565b600062000bd9838362000f0160201b60201c565b62000c3457826000018290806001815401808255809150506001900390600052602060002001600090919091909150558260000180549050836001016000848152602001908152602001600020819055506001905062000c39565b600090505b92915050565b600080846001016000858152602001908152602001600020549050600081141562000ce85784600001604051806040016040528086815260200185815250908060018154018082558091505060019003906000526020600020906002020160009091909190915060008201518160000155602082015181600101555050846000018054905085600101600086815260200190815260200160002081905550600191505062000d17565b8285600001600183038154811062000cfc57fe5b90600052602060002090600202016001018190555060009150505b9392505050565b60608247101562000d7b576040517f08c379a000000000000000000000000000000000000000000000000000000000815260040180806020018281038252602681526020018062005c7f6026913960400191505060405180910390fd5b62000d8c8562000b7060201b60201c565b62000dff576040517f08c379a000000000000000000000000000000000000000000000000000000000815260040180806020018281038252601d8152602001807f416464726573733a2063616c6c20746f206e6f6e2d636f6e747261637400000081525060200191505060405180910390fd5b600060608673ffffffffffffffffffffffffffffffffffffffff1685876040518082805190602001908083835b6020831062000e51578051825260208201915060208101905060208303925062000e2c565b6001836020036101000a03801982511681845116808217855250505050505090500191505060006040518083038185875af1925050503d806000811462000eb5576040519150601f19603f3d011682016040523d82523d6000602084013e62000eba565b606091505b509150915062000ed282828662000f2460201b60201c565b92505050949350505050565b600080836001016000848152602001908152602001600020541415905092915050565b600080836001016000848152602001908152602001600020541415905092915050565b6060831562000f365782905062000fef565b60008351111562000f4a5782518084602001fd5b816040517f08c379a00000000000000000000000000000000000000000000000000000000081526004018080602001828103825283818151815260200191508051906020019080838360005b8381101562000fb357808201518184015260208101905062000f96565b50505050905090810190601f16801562000fe15780820380516001836020036101000a031916815260200191505b509250505060405180910390fd5b9392505050565b828054600181600116156101000203166002900490600052602060002090601f016020900481019282601f106200103957805160ff19168380011785556200106a565b828001600101855582156200106a579182015b82811115620010695782518255916020019190600101906200104c565b5b5090506200107991906200107d565b5090565b5b80821115620010985760008160009055506001016200107e565b5090565b614ba180620010ac6000396000f3fe6080604052600436106102515760003560e01c8063715018a611610139578063b88d4fde116100b6578063e477a54d1161007a578063e477a54d14610fff578063e985e9c514611016578063eb8d24441461109d578063f2fde38b146110ca578063f51f96dd1461111b578063f9c9816f1461114657610251565b8063b88d4fde14610d64578063c87b56dd14610e76578063c9b298f114610f2a578063cf1c0e5514610f58578063d5642d6814610f6f57610251565b80638da5cb5b116100fd5780638da5cb5b14610b4357806395d89b4114610b84578063a22cb46514610c14578063a3db27e214610c71578063b31d61b014610c9f57610251565b8063715018a614610a265780637e26639f14610a3d578063801d8c9a14610a685780638462151c14610a93578063853828b614610b3957610251565b806334918dfd116101d257806351fb012d1161019657806351fb012d146107ac578063525b3fe3146107d957806355f804b3146108045780636352211e146108cc5780636c0360eb1461093157806370a08231146109c157610251565b806334918dfd1461064d5780634041b35e1461066457806342842e0e1461067b5780634d813120146106f65780634f6ccce71461075d57610251565b80631167a65a116102195780631167a65a146104de57806318160ddd1461050b57806323b872dd146105365780632f745c59146105b157806330f72cd41461062057610251565b806301ffc9a71461025657806306fdde03146102c6578063081812fc14610356578063095ea7b3146103bb5780631096952314610416575b600080fd5b34801561026257600080fd5b506102ae6004803603602081101561027957600080fd5b8101908080357bffffffffffffffffffffffffffffffffffffffffffffffffffffffff19169060200190929190505050611171565b60405180821515815260200191505060405180910390f35b3480156102d257600080fd5b506102db6111d8565b6040518080602001828103825283818151815260200191508051906020019080838360005b8381101561031b578082015181840152602081019050610300565b50505050905090810190601f1680156103485780820380516001836020036101000a031916815260200191505b509250505060405180910390f35b34801561036257600080fd5b5061038f6004803603602081101561037957600080fd5b810190808035906020019092919050505061127a565b604051808273ffffffffffffffffffffffffffffffffffffffff16815260200191505060405180910390f35b3480156103c757600080fd5b50610414600480360360408110156103de57600080fd5b81019080803573ffffffffffffffffffffffffffffffffffffffff16906020019092919080359060200190929190505050611315565b005b34801561042257600080fd5b506104dc6004803603602081101561043957600080fd5b810190808035906020019064010000000081111561045657600080fd5b82018360208201111561046857600080fd5b8035906020019184600183028401116401000000008311171561048a57600080fd5b91908080601f016020809104026020016040519081016040528093929190818152602001838380828437600081840152601f19601f820116905080830192505050505050509192919290505050611459565b005b3480156104ea57600080fd5b506104f3611522565b60405180821515815260200191505060405180910390f35b34801561051757600080fd5b50610520611535565b6040518082815260200191505060405180910390f35b34801561054257600080fd5b506105af6004803603606081101561055957600080fd5b81019080803573ffffffffffffffffffffffffffffffffffffffff169060200190929190803573ffffffffffffffffffffffffffffffffffffffff16906020019092919080359060200190929190505050611546565b005b3480156105bd57600080fd5b5061060a600480360360408110156105d457600080fd5b81019080803573ffffffffffffffffffffffffffffffffffffffff169060200190929190803590602001909291905050506115bc565b6040518082815260200191505060405180910390f35b34801561062c57600080fd5b50610635611617565b60405180821515815260200191505060405180910390f35b34801561065957600080fd5b5061066261162a565b005b34801561067057600080fd5b50610679611705565b005b34801561068757600080fd5b506106f46004803603606081101561069e57600080fd5b81019080803573ffffffffffffffffffffffffffffffffffffffff169060200190929190803573ffffffffffffffffffffffffffffffffffffffff169060200190929190803590602001909291905050506117e0565b005b34801561070257600080fd5b506107456004803603602081101561071957600080fd5b81019080803573ffffffffffffffffffffffffffffffffffffffff169060200190929190505050611800565b60405180821515815260200191505060405180910390f35b34801561076957600080fd5b506107966004803603602081101561078057600080fd5b810190808035906020019092919050505061185b565b6040518082815260200191505060405180910390f35b3480156107b857600080fd5b506107c161187e565b60405180821515815260200191505060405180910390f35b3480156107e557600080fd5b506107ee611891565b6040518082815260200191505060405180910390f35b34801561081057600080fd5b506108ca6004803603602081101561082757600080fd5b810190808035906020019064010000000081111561084457600080fd5b82018360208201111561085657600080fd5b8035906020019184600183028401116401000000008311171561087857600080fd5b91908080601f016020809104026020016040519081016040528093929190818152602001838380828437600081840152601f19601f820116905080830192505050505050509192919290505050611897565b005b3480156108d857600080fd5b50610905600480360360208110156108ef57600080fd5b8101908080359060200190929190505050611952565b604051808273ffffffffffffffffffffffffffffffffffffffff16815260200191505060405180910390f35b34801561093d57600080fd5b50610946611989565b6040518080602001828103825283818151815260200191508051906020019080838360005b8381101561098657808201518184015260208101905061096b565b50505050905090810190601f1680156109b35780820380516001836020036101000a031916815260200191505b509250505060405180910390f35b3480156109cd57600080fd5b50610a10600480360360208110156109e457600080fd5b81019080803573ffffffffffffffffffffffffffffffffffffffff169060200190929190505050611a2b565b6040518082815260200191505060405180910390f35b348015610a3257600080fd5b50610a3b611b00565b005b348015610a4957600080fd5b50610a52611c70565b6040518082815260200191505060405180910390f35b348015610a7457600080fd5b50610a7d611c76565b6040518082815260200191505060405180910390f35b348015610a9f57600080fd5b50610ae260048036036020811015610ab657600080fd5b81019080803573ffffffffffffffffffffffffffffffffffffffff169060200190929190505050611c82565b6040518080602001828103825283818151815260200191508051906020019060200280838360005b83811015610b25578082015181840152602081019050610b0a565b505050509050019250505060405180910390f35b610b41611d7b565b005b348015610b4f57600080fd5b50610b586121c3565b604051808273ffffffffffffffffffffffffffffffffffffffff16815260200191505060405180910390f35b348015610b9057600080fd5b50610b996121ed565b6040518080602001828103825283818151815260200191508051906020019080838360005b83811015610bd9578082015181840152602081019050610bbe565b50505050905090810190601f168015610c065780820380516001836020036101000a031916815260200191505b509250505060405180910390f35b348015610c2057600080fd5b50610c6f60048036036040811015610c3757600080fd5b81019080803573ffffffffffffffffffffffffffffffffffffffff16906020019092919080351515906020019092919050505061228f565b005b610c9d60048036036020811015610c8757600080fd5b8101908080359060200190929190505050612445565b005b348015610cab57600080fd5b50610d6260048036036020811015610cc257600080fd5b8101908080359060200190640100000000811115610cdf57600080fd5b820183602082011115610cf157600080fd5b80359060200191846020830284011164010000000083111715610d1357600080fd5b919080806020026020016040519081016040528093929190818152602001838360200280828437600081840152601f19601f82011690508083019250505050505050919291929050505061279a565b005b348015610d7057600080fd5b50610e7460048036036080811015610d8757600080fd5b81019080803573ffffffffffffffffffffffffffffffffffffffff169060200190929190803573ffffffffffffffffffffffffffffffffffffffff1690602001909291908035906020019092919080359060200190640100000000811115610dee57600080fd5b820183602082011115610e0057600080fd5b80359060200191846001830284011164010000000083111715610e2257600080fd5b91908080601f016020809104026020016040519081016040528093929190818152602001838380828437600081840152601f19601f8201169050808301925050505050505091929192905050506128d1565b005b348015610e8257600080fd5b50610eaf60048036036020811015610e9957600080fd5b8101908080359060200190929190505050612949565b6040518080602001828103825283818151815260200191508051906020019080838360005b83811015610eef578082015181840152602081019050610ed4565b50505050905090810190601f168015610f1c5780820380516001836020036101000a031916815260200191505b509250505060405180910390f35b610f5660048036036020811015610f4057600080fd5b8101908080359060200190929190505050612c1a565b005b348015610f6457600080fd5b50610f6d612e67565b005b348015610f7b57600080fd5b50610f84612f42565b6040518080602001828103825283818151815260200191508051906020019080838360005b83811015610fc4578082015181840152602081019050610fa9565b50505050905090810190601f168015610ff15780820380516001836020036101000a031916815260200191505b509250505060405180910390f35b34801561100b57600080fd5b50611014612fe0565b005b34801561102257600080fd5b506110856004803603604081101561103957600080fd5b81019080803573ffffffffffffffffffffffffffffffffffffffff169060200190929190803573ffffffffffffffffffffffffffffffffffffffff1690602001909291905050506130bb565b60405180821515815260200191505060405180910390f35b3480156110a957600080fd5b506110b261314f565b60405180821515815260200191505060405180910390f35b3480156110d657600080fd5b50611119600480360360208110156110ed57600080fd5b81019080803573ffffffffffffffffffffffffffffffffffffffff169060200190929190505050613162565b005b34801561112757600080fd5b50611130613357565b6040518082815260200191505060405180910390f35b34801561115257600080fd5b5061115b613363565b6040518082815260200191505060405180910390f35b6000806000837bffffffffffffffffffffffffffffffffffffffffffffffffffffffff19167bffffffffffffffffffffffffffffffffffffffffffffffffffffffff1916815260200190815260200160002060009054906101000a900460ff169050919050565b606060068054600181600116156101000203166002900480601f0160208091040260200160405190810160405280929190818152602001828054600181600116156101000203166002900480156112705780601f1061124557610100808354040283529160200191611270565b820191906000526020600020905b81548152906001019060200180831161125357829003601f168201915b5050505050905090565b6000611285826133fc565b6112da576040517f08c379a000000000000000000000000000000000000000000000000000000000815260040180806020018281038252602c815260200180614a72602c913960400191505060405180910390fd5b6004600083815260200190815260200160002060009054906101000a900473ffffffffffffffffffffffffffffffffffffffff169050919050565b600061132082611952565b90508073ffffffffffffffffffffffffffffffffffffffff168373ffffffffffffffffffffffffffffffffffffffff1614156113a7576040517f08c379a0000000000000000000000000000000000000000000000000000000008152600401808060200182810382526021815260200180614b1a6021913960400191505060405180910390fd5b8073ffffffffffffffffffffffffffffffffffffffff166113c6613419565b73ffffffffffffffffffffffffffffffffffffffff1614806113f557506113f4816113ef613419565b6130bb565b5b61144a576040517f08c379a00000000000000000000000000000000000000000000000000000000081526004018080602001828103825260388152602001806149a46038913960400191505060405180910390fd5b6114548383613421565b505050565b611461613419565b73ffffffffffffffffffffffffffffffffffffffff1661147f6121c3565b73ffffffffffffffffffffffffffffffffffffffff1614611508576040517f08c379a00000000000000000000000000000000000000000000000000000000081526004018080602001828103825260208152602001807f4f776e61626c653a2063616c6c6572206973206e6f7420746865206f776e657281525060200191505060405180910390fd5b806012908051906020019061151e9291906147e8565b5050565b601160149054906101000a900460ff1681565b600061154160026134da565b905090565b611557611551613419565b826134ef565b6115ac576040517f08c379a0000000000000000000000000000000000000000000000000000000008152600401808060200182810382526031815260200180614b3b6031913960400191505060405180910390fd5b6115b78383836135e3565b505050565b600061160f82600160008673ffffffffffffffffffffffffffffffffffffffff1673ffffffffffffffffffffffffffffffffffffffff16815260200190815260200160002061382690919063ffffffff16565b905092915050565b601160159054906101000a900460ff1681565b611632613419565b73ffffffffffffffffffffffffffffffffffffffff166116506121c3565b73ffffffffffffffffffffffffffffffffffffffff16146116d9576040517f08c379a00000000000000000000000000000000000000000000000000000000081526004018080602001828103825260208152602001807f4f776e61626c653a2063616c6c6572206973206e6f7420746865206f776e657281525060200191505060405180910390fd5b601160169054906101000a900460ff1615601160166101000a81548160ff021916908315150217905550565b61170d613419565b73ffffffffffffffffffffffffffffffffffffffff1661172b6121c3565b73ffffffffffffffffffffffffffffffffffffffff16146117b4576040517f08c379a00000000000000000000000000000000000000000000000000000000081526004018080602001828103825260208152602001807f4f776e61626c653a2063616c6c6572206973206e6f7420746865206f776e657281525060200191505060405180910390fd5b601160179054906101000a900460ff1615601160176101000a81548160ff021916908315150217905550565b6117fb838383604051806020016040528060008152506128d1565b505050565b600080601360008473ffffffffffffffffffffffffffffffffffffffff1673ffffffffffffffffffffffffffffffffffffffff16815260200190815260200160002060009054906101000a900460ff16905080915050919050565b60008061187283600261384090919063ffffffff16565b50905080915050919050565b601160179054906101000a900460ff1681565b6101bc81565b61189f613419565b73ffffffffffffffffffffffffffffffffffffffff166118bd6121c3565b73ffffffffffffffffffffffffffffffffffffffff1614611946576040517f08c379a00000000000000000000000000000000000000000000000000000000081526004018080602001828103825260208152602001807f4f776e61626c653a2063616c6c6572206973206e6f7420746865206f776e657281525060200191505060405180910390fd5b61194f8161386c565b50565b600061198282604051806060016040528060298152602001614a066029913960026138869092919063ffffffff16565b9050919050565b606060098054600181600116156101000203166002900480601f016020809104026020016040519081016040528092919081815260200182805460018160011615610100020316600290048015611a215780601f106119f657610100808354040283529160200191611a21565b820191906000526020600020905b815481529060010190602001808311611a0457829003601f168201915b5050505050905090565b60008073ffffffffffffffffffffffffffffffffffffffff168273ffffffffffffffffffffffffffffffffffffffff161415611ab2576040517f08c379a000000000000000000000000000000000000000000000000000000000815260040180806020018281038252602a8152602001806149dc602a913960400191505060405180910390fd5b611af9600160008473ffffffffffffffffffffffffffffffffffffffff1673ffffffffffffffffffffffffffffffffffffffff1681526020019081526020016000206138a5565b9050919050565b611b08613419565b73ffffffffffffffffffffffffffffffffffffffff16611b266121c3565b73ffffffffffffffffffffffffffffffffffffffff1614611baf576040517f08c379a00000000000000000000000000000000000000000000000000000000081526004018080602001828103825260208152602001807f4f776e61626c653a2063616c6c6572206973206e6f7420746865206f776e657281525060200191505060405180910390fd5b600073ffffffffffffffffffffffffffffffffffffffff16600a60009054906101000a900473ffffffffffffffffffffffffffffffffffffffff1673ffffffffffffffffffffffffffffffffffffffff167f8be0079c531659141344cd1fd0a4f28419497f9722a3daafe3b4186f6b6457e060405160405180910390a36000600a60006101000a81548173ffffffffffffffffffffffffffffffffffffffff021916908373ffffffffffffffffffffffffffffffffffffffff160217905550565b61115c81565b67011c37937e08000081565b60606000611c8f83611a2b565b90506000811415611cea57600067ffffffffffffffff81118015611cb257600080fd5b50604051908082528060200260200182016040528015611ce15781602001602082028036833780820191505090505b50915050611d76565b60608167ffffffffffffffff81118015611d0357600080fd5b50604051908082528060200260200182016040528015611d325781602001602082028036833780820191505090505b50905060005b82811015611d6f57611d4a85826115bc565b828281518110611d5657fe5b6020026020010181815250508080600101915050611d38565b8193505050505b919050565b611d83613419565b73ffffffffffffffffffffffffffffffffffffffff16611da16121c3565b73ffffffffffffffffffffffffffffffffffffffff1614611e2a576040517f08c379a00000000000000000000000000000000000000000000000000000000081526004018080602001828103825260208152602001807f4f776e61626c653a2063616c6c6572206973206e6f7420746865206f776e657281525060200191505060405180910390fd5b600047905060008111611e3c57600080fd5b600b60009054906101000a900473ffffffffffffffffffffffffffffffffffffffff1673ffffffffffffffffffffffffffffffffffffffff166108fc611e9f6064611e91600a866138ba90919063ffffffff16565b61394090919063ffffffff16565b9081150290604051600060405180830381858888f19350505050611ec257600080fd5b600c60009054906101000a900473ffffffffffffffffffffffffffffffffffffffff1673ffffffffffffffffffffffffffffffffffffffff166108fc611f256064611f17600a866138ba90919063ffffffff16565b61394090919063ffffffff16565b9081150290604051600060405180830381858888f19350505050611f4857600080fd5b600d60009054906101000a900473ffffffffffffffffffffffffffffffffffffffff1673ffffffffffffffffffffffffffffffffffffffff166108fc611fab6064611f9d600a866138ba90919063ffffffff16565b61394090919063ffffffff16565b9081150290604051600060405180830381858888f19350505050611fce57600080fd5b600f60009054906101000a900473ffffffffffffffffffffffffffffffffffffffff1673ffffffffffffffffffffffffffffffffffffffff166108fc61203160646120236005866138ba90919063ffffffff16565b61394090919063ffffffff16565b9081150290604051600060405180830381858888f1935050505061205457600080fd5b600e60009054906101000a900473ffffffffffffffffffffffffffffffffffffffff1673ffffffffffffffffffffffffffffffffffffffff166108fc6120b760646120a96005866138ba90919063ffffffff16565b61394090919063ffffffff16565b9081150290604051600060405180830381858888f193505050506120da57600080fd5b601060009054906101000a900473ffffffffffffffffffffffffffffffffffffffff1673ffffffffffffffffffffffffffffffffffffffff166108fc61213d606461212f601c866138ba90919063ffffffff16565b61394090919063ffffffff16565b9081150290604051600060405180830381858888f1935050505061216057600080fd5b601160009054906101000a900473ffffffffffffffffffffffffffffffffffffffff1673ffffffffffffffffffffffffffffffffffffffff166108fc479081150290604051600060405180830381858888f193505050506121c057600080fd5b50565b6000600a60009054906101000a900473ffffffffffffffffffffffffffffffffffffffff16905090565b606060078054600181600116156101000203166002900480601f0160208091040260200160405190810160405280929190818152602001828054600181600116156101000203166002900480156122855780601f1061225a57610100808354040283529160200191612285565b820191906000526020600020905b81548152906001019060200180831161226857829003601f168201915b5050505050905090565b612297613419565b73ffffffffffffffffffffffffffffffffffffffff168273ffffffffffffffffffffffffffffffffffffffff161415612338576040517f08c379a00000000000000000000000000000000000000000000000000000000081526004018080602001828103825260198152602001807f4552433732313a20617070726f766520746f2063616c6c65720000000000000081525060200191505060405180910390fd5b8060056000612345613419565b73ffffffffffffffffffffffffffffffffffffffff1673ffffffffffffffffffffffffffffffffffffffff16815260200190815260200160002060008473ffffffffffffffffffffffffffffffffffffffff1673ffffffffffffffffffffffffffffffffffffffff16815260200190815260200160002060006101000a81548160ff0219169083151502179055508173ffffffffffffffffffffffffffffffffffffffff166123f2613419565b73ffffffffffffffffffffffffffffffffffffffff167f17307eab39ab6107e8899845ad3d59bd9653f200f220920489ca2b5937696c318360405180821515815260200191505060405180910390a35050565b601160149054906101000a900460ff166124c7576040517f08c379a00000000000000000000000000000000000000000000000000000000081526004018080602001828103825260138152602001807f53746f7265206d757374206265206f70656e210000000000000000000000000081525060200191505060405180910390fd5b601160169054906101000a900460ff16612549576040517f08c379a00000000000000000000000000000000000000000000000000000000081526004018080602001828103825260148152602001807f53616c65206d757374206265206163746976652100000000000000000000000081525060200191505060405180910390fd5b61115c61256682612558611535565b6139c990919063ffffffff16565b11156125da576040517f08c379a00000000000000000000000000000000000000000000000000000000081526004018080602001828103825260208152602001807f507572636861736520776f756c6420657863656564206d617820737570706c7981525060200191505060405180910390fd5b61115c8110612634576040517f08c379a000000000000000000000000000000000000000000000000000000000815260040180806020018281038252602e8152602001806148a8602e913960400191505060405180910390fd5b346126508267016345785d8a00006138ba90919063ffffffff16565b11156126c4576040517f08c379a000000000000000000000000000000000000000000000000000000000815260040180806020018281038252601f8152602001807f45746865722076616c75652073656e74206973206e6f7420636f72726563740081525060200191505060405180910390fd5b601160179054906101000a900460ff1615612755576126e233611800565b612754576040517f08c379a00000000000000000000000000000000000000000000000000000000081526004018080602001828103825260198152602001807f55736572206d757374206265206f6e2077686974656c6973740000000000000081525060200191505060405180910390fd5b5b60005b8181101561279657600061276a611535565b905061115c612777611535565b1015612788576127873382613a51565b5b508080600101915050612758565b5050565b6127a2613419565b73ffffffffffffffffffffffffffffffffffffffff166127c06121c3565b73ffffffffffffffffffffffffffffffffffffffff1614612849576040517f08c379a00000000000000000000000000000000000000000000000000000000081526004018080602001828103825260208152602001807f4f776e61626c653a2063616c6c6572206973206e6f7420746865206f776e657281525060200191505060405180910390fd5b60005b81518110156128cd5760016013600084848151811061286757fe5b602002602001015173ffffffffffffffffffffffffffffffffffffffff1673ffffffffffffffffffffffffffffffffffffffff16815260200190815260200160002060006101000a81548160ff021916908315150217905550808060010191505061284c565b5050565b6128e26128dc613419565b836134ef565b612937576040517f08c379a0000000000000000000000000000000000000000000000000000000008152600401808060200182810382526031815260200180614b3b6031913960400191505060405180910390fd5b61294384848484613a6f565b50505050565b6060612954826133fc565b6129a9576040517f08c379a000000000000000000000000000000000000000000000000000000000815260040180806020018281038252602f815260200180614ac7602f913960400191505060405180910390fd5b6060600860008481526020019081526020016000208054600181600116156101000203166002900480601f016020809104026020016040519081016040528092919081815260200182805460018160011615610100020316600290048015612a525780601f10612a2757610100808354040283529160200191612a52565b820191906000526020600020905b815481529060010190602001808311612a3557829003601f168201915b505050505090506060612a63611989565b9050600081511415612a79578192505050612c15565b600082511115612b4a5780826040516020018083805190602001908083835b60208310612abb5780518252602082019150602081019050602083039250612a98565b6001836020036101000a03801982511681845116808217855250505050505090500182805190602001908083835b60208310612b0c5780518252602082019150602081019050602083039250612ae9565b6001836020036101000a0380198251168184511680821785525050505050509050019250505060405160208183030381529060405292505050612c15565b80612b5485613ae1565b6040516020018083805190602001908083835b60208310612b8a5780518252602082019150602081019050602083039250612b67565b6001836020036101000a03801982511681845116808217855250505050505090500182805190602001908083835b60208310612bdb5780518252602082019150602081019050602083039250612bb8565b6001836020036101000a03801982511681845116808217855250505050505090500192505050604051602081830303815290604052925050505b919050565b601160149054906101000a900460ff16612c9c576040517f08c379a00000000000000000000000000000000000000000000000000000000081526004018080602001828103825260138152602001807f53746f7265206d757374206265206f70656e210000000000000000000000000081525060200191505060405180910390fd5b601160159054906101000a900460ff16612d1e576040517f08c379a000000000000000000000000000000000000000000000000000000000815260040180806020018281038252601a8152602001807f5072656d696e74696e67206d757374206265206163746976652100000000000081525060200191505060405180910390fd5b6101bc612d3b82612d2d611535565b6139c990919063ffffffff16565b1115612d92576040517f08c379a0000000000000000000000000000000000000000000000000000000008152600401808060200182810382526024815260200180614af66024913960400191505060405180910390fd5b34612dae8267011c37937e0800006138ba90919063ffffffff16565b1115612e22576040517f08c379a000000000000000000000000000000000000000000000000000000000815260040180806020018281038252601f8152602001807f45746865722076616c75652073656e74206973206e6f7420636f72726563740081525060200191505060405180910390fd5b60005b81811015612e63576000612e37611535565b90506101bc612e44611535565b1015612e5557612e543382613a51565b5b508080600101915050612e25565b5050565b612e6f613419565b73ffffffffffffffffffffffffffffffffffffffff16612e8d6121c3565b73ffffffffffffffffffffffffffffffffffffffff1614612f16576040517f08c379a00000000000000000000000000000000000000000000000000000000081526004018080602001828103825260208152602001807f4f776e61626c653a2063616c6c6572206973206e6f7420746865206f776e657281525060200191505060405180910390fd5b601160149054906101000a900460ff1615601160146101000a81548160ff021916908315150217905550565b60128054600181600116156101000203166002900480601f016020809104026020016040519081016040528092919081815260200182805460018160011615610100020316600290048015612fd85780601f10612fad57610100808354040283529160200191612fd8565b820191906000526020600020905b815481529060010190602001808311612fbb57829003601f168201915b505050505081565b612fe8613419565b73ffffffffffffffffffffffffffffffffffffffff166130066121c3565b73ffffffffffffffffffffffffffffffffffffffff161461308f576040517f08c379a00000000000000000000000000000000000000000000000000000000081526004018080602001828103825260208152602001807f4f776e61626c653a2063616c6c6572206973206e6f7420746865206f776e657281525060200191505060405180910390fd5b601160159054906101000a900460ff1615601160156101000a81548160ff021916908315150217905550565b6000600560008473ffffffffffffffffffffffffffffffffffffffff1673ffffffffffffffffffffffffffffffffffffffff16815260200190815260200160002060008373ffffffffffffffffffffffffffffffffffffffff1673ffffffffffffffffffffffffffffffffffffffff16815260200190815260200160002060009054906101000a900460ff16905092915050565b601160169054906101000a900460ff1681565b61316a613419565b73ffffffffffffffffffffffffffffffffffffffff166131886121c3565b73ffffffffffffffffffffffffffffffffffffffff1614613211576040517f08c379a00000000000000000000000000000000000000000000000000000000081526004018080602001828103825260208152602001807f4f776e61626c653a2063616c6c6572206973206e6f7420746865206f776e657281525060200191505060405180910390fd5b600073ffffffffffffffffffffffffffffffffffffffff168173ffffffffffffffffffffffffffffffffffffffff161415613297576040517f08c379a00000000000000000000000000000000000000000000000000000000081526004018080602001828103825260268152602001806149086026913960400191505060405180910390fd5b8073ffffffffffffffffffffffffffffffffffffffff16600a60009054906101000a900473ffffffffffffffffffffffffffffffffffffffff1673ffffffffffffffffffffffffffffffffffffffff167f8be0079c531659141344cd1fd0a4f28419497f9722a3daafe3b4186f6b6457e060405160405180910390a380600a60006101000a81548173ffffffffffffffffffffffffffffffffffffffff021916908373ffffffffffffffffffffffffffffffffffffffff16021790555050565b67016345785d8a000081565b600f81565b600061337a836000018360001b613c28565b905092915050565b60006133ae846000018460001b8473ffffffffffffffffffffffffffffffffffffffff1660001b613c98565b90509392505050565b600080823b905060008111915050919050565b60606133d98484600085613d74565b90509392505050565b60006133f4836000018360001b613f1d565b905092915050565b60006134128260026133e290919063ffffffff16565b9050919050565b600033905090565b816004600083815260200190815260200160002060006101000a81548173ffffffffffffffffffffffffffffffffffffffff021916908373ffffffffffffffffffffffffffffffffffffffff160217905550808273ffffffffffffffffffffffffffffffffffffffff1661349483611952565b73ffffffffffffffffffffffffffffffffffffffff167f8c5be1e5ebec7d5bd14f71427d1e84f3dd0314c0f7b2291e5b200ac8c7c3b92560405160405180910390a45050565b60006134e882600001613f40565b9050919050565b60006134fa826133fc565b61354f576040517f08c379a000000000000000000000000000000000000000000000000000000000815260040180806020018281038252602c815260200180614978602c913960400191505060405180910390fd5b600061355a83611952565b90508073ffffffffffffffffffffffffffffffffffffffff168473ffffffffffffffffffffffffffffffffffffffff1614806135c957508373ffffffffffffffffffffffffffffffffffffffff166135b18461127a565b73ffffffffffffffffffffffffffffffffffffffff16145b806135da57506135d981856130bb565b5b91505092915050565b8273ffffffffffffffffffffffffffffffffffffffff1661360382611952565b73ffffffffffffffffffffffffffffffffffffffff161461366f576040517f08c379a0000000000000000000000000000000000000000000000000000000008152600401808060200182810382526029815260200180614a9e6029913960400191505060405180910390fd5b600073ffffffffffffffffffffffffffffffffffffffff168273ffffffffffffffffffffffffffffffffffffffff1614156136f5576040517f08c379a000000000000000000000000000000000000000000000000000000000815260040180806020018281038252602481526020018061492e6024913960400191505060405180910390fd5b613700838383613f51565b61370b600082613421565b61375c81600160008673ffffffffffffffffffffffffffffffffffffffff1673ffffffffffffffffffffffffffffffffffffffff168152602001908152602001600020613f5690919063ffffffff16565b506137ae81600160008573ffffffffffffffffffffffffffffffffffffffff1673ffffffffffffffffffffffffffffffffffffffff16815260200190815260200160002061336890919063ffffffff16565b506137c5818360026133829092919063ffffffff16565b50808273ffffffffffffffffffffffffffffffffffffffff168473ffffffffffffffffffffffffffffffffffffffff167fddf252ad1be2c89b69c2b068fc378daa952ba7f163c4a11628f55a4df523b3ef60405160405180910390a4505050565b60006138358360000183613f70565b60001c905092915050565b6000806000806138538660000186613ff3565b915091508160001c8160001c9350935050509250929050565b80600990805190602001906138829291906147e8565b5050565b6000613899846000018460001b8461408c565b60001c90509392505050565b60006138b382600001614182565b9050919050565b6000808314156138cd576000905061393a565b60008284029050828482816138de57fe5b0414613935576040517f08c379a0000000000000000000000000000000000000000000000000000000008152600401808060200182810382526021815260200180614a516021913960400191505060405180910390fd5b809150505b92915050565b60008082116139b7576040517f08c379a000000000000000000000000000000000000000000000000000000000815260040180806020018281038252601a8152602001807f536166654d6174683a206469766973696f6e206279207a65726f00000000000081525060200191505060405180910390fd5b8183816139c057fe5b04905092915050565b600080828401905083811015613a47576040517f08c379a000000000000000000000000000000000000000000000000000000000815260040180806020018281038252601b8152602001807f536166654d6174683a206164646974696f6e206f766572666c6f77000000000081525060200191505060405180910390fd5b8091505092915050565b613a6b828260405180602001604052806000815250614193565b5050565b613a7a8484846135e3565b613a8684848484614204565b613adb576040517f08c379a00000000000000000000000000000000000000000000000000000000081526004018080602001828103825260328152602001806148d66032913960400191505060405180910390fd5b50505050565b60606000821415613b29576040518060400160405280600181526020017f30000000000000000000000000000000000000000000000000000000000000008152509050613c23565b600082905060005b60008214613b53578080600101915050600a8281613b4b57fe5b049150613b31565b60608167ffffffffffffffff81118015613b6c57600080fd5b506040519080825280601f01601f191660200182016040528015613b9f5781602001600182028036833780820191505090505b50905060006001830390508593505b60008414613c1b57600a8481613bc057fe5b0660300160f81b82828060019003935081518110613bda57fe5b60200101907effffffffffffffffffffffffffffffffffffffffffffffffffffffffffffff1916908160001a905350600a8481613c1357fe5b049350613bae565b819450505050505b919050565b6000613c34838361441d565b613c8d578260000182908060018154018082558091505060019003906000526020600020016000909190919091505582600001805490508360010160008481526020019081526020016000208190555060019050613c92565b600090505b92915050565b6000808460010160008581526020019081526020016000205490506000811415613d3f57846000016040518060400160405280868152602001858152509080600181540180825580915050600190039060005260206000209060020201600090919091909150600082015181600001556020820151816001015550508460000180549050856001016000868152602001908152602001600020819055506001915050613d6d565b82856000016001830381548110613d5257fe5b90600052602060002090600202016001018190555060009150505b9392505050565b606082471015613dcf576040517f08c379a00000000000000000000000000000000000000000000000000000000081526004018080602001828103825260268152602001806149526026913960400191505060405180910390fd5b613dd8856133b7565b613e4a576040517f08c379a000000000000000000000000000000000000000000000000000000000815260040180806020018281038252601d8152602001807f416464726573733a2063616c6c20746f206e6f6e2d636f6e747261637400000081525060200191505060405180910390fd5b600060608673ffffffffffffffffffffffffffffffffffffffff1685876040518082805190602001908083835b60208310613e9a5780518252602082019150602081019050602083039250613e77565b6001836020036101000a03801982511681845116808217855250505050505090500191505060006040518083038185875af1925050503d8060008114613efc576040519150601f19603f3d011682016040523d82523d6000602084013e613f01565b606091505b5091509150613f11828286614440565b92505050949350505050565b600080836001016000848152602001908152602001600020541415905092915050565b600081600001805490509050919050565b505050565b6000613f68836000018360001b61450c565b905092915050565b600081836000018054905011613fd1576040517f08c379a00000000000000000000000000000000000000000000000000000000081526004018080602001828103825260228152602001806148866022913960400191505060405180910390fd5b826000018281548110613fe057fe5b9060005260206000200154905092915050565b60008082846000018054905011614055576040517f08c379a0000000000000000000000000000000000000000000000000000000008152600401808060200182810382526022815260200180614a2f6022913960400191505060405180910390fd5b600084600001848154811061406657fe5b906000526020600020906002020190508060000154816001015492509250509250929050565b60008084600101600085815260200190815260200160002054905060008114158390614153576040517f08c379a00000000000000000000000000000000000000000000000000000000081526004018080602001828103825283818151815260200191508051906020019080838360005b838110156141185780820151818401526020810190506140fd565b50505050905090810190601f1680156141455780820380516001836020036101000a031916815260200191505b509250505060405180910390fd5b5084600001600182038154811061416657fe5b9060005260206000209060020201600101549150509392505050565b600081600001805490509050919050565b61419d83836145f4565b6141aa6000848484614204565b6141ff576040517f08c379a00000000000000000000000000000000000000000000000000000000081526004018080602001828103825260328152602001806148d66032913960400191505060405180910390fd5b505050565b60006142258473ffffffffffffffffffffffffffffffffffffffff166133b7565b6142325760019050614415565b606061439c63150b7a0260e01b614247613419565b888787604051602401808573ffffffffffffffffffffffffffffffffffffffff1681526020018473ffffffffffffffffffffffffffffffffffffffff16815260200183815260200180602001828103825283818151815260200191508051906020019080838360005b838110156142cb5780820151818401526020810190506142b0565b50505050905090810190601f1680156142f85780820380516001836020036101000a031916815260200191505b5095505050505050604051602081830303815290604052907bffffffffffffffffffffffffffffffffffffffffffffffffffffffff19166020820180517bffffffffffffffffffffffffffffffffffffffffffffffffffffffff83818316178352505050506040518060600160405280603281526020016148d6603291398773ffffffffffffffffffffffffffffffffffffffff166133ca9092919063ffffffff16565b905060008180602001905160208110156143b557600080fd5b8101908080519060200190929190505050905063150b7a0260e01b7bffffffffffffffffffffffffffffffffffffffffffffffffffffffff1916817bffffffffffffffffffffffffffffffffffffffffffffffffffffffff191614925050505b949350505050565b600080836001016000848152602001908152602001600020541415905092915050565b6060831561445057829050614505565b6000835111156144635782518084602001fd5b816040517f08c379a00000000000000000000000000000000000000000000000000000000081526004018080602001828103825283818151815260200191508051906020019080838360005b838110156144ca5780820151818401526020810190506144af565b50505050905090810190601f1680156144f75780820380516001836020036101000a031916815260200191505b509250505060405180910390fd5b9392505050565b600080836001016000848152602001908152602001600020549050600081146145e8576000600182039050600060018660000180549050039050600086600001828154811061455757fe5b906000526020600020015490508087600001848154811061457457fe5b90600052602060002001819055506001830187600101600083815260200190815260200160002081905550866000018054806145ac57fe5b600190038181906000526020600020016000905590558660010160008781526020019081526020016000206000905560019450505050506145ee565b60009150505b92915050565b600073ffffffffffffffffffffffffffffffffffffffff168273ffffffffffffffffffffffffffffffffffffffff161415614697576040517f08c379a00000000000000000000000000000000000000000000000000000000081526004018080602001828103825260208152602001807f4552433732313a206d696e7420746f20746865207a65726f206164647265737381525060200191505060405180910390fd5b6146a0816133fc565b15614713576040517f08c379a000000000000000000000000000000000000000000000000000000000815260040180806020018281038252601c8152602001807f4552433732313a20746f6b656e20616c7265616479206d696e7465640000000081525060200191505060405180910390fd5b61471f60008383613f51565b61477081600160008573ffffffffffffffffffffffffffffffffffffffff1673ffffffffffffffffffffffffffffffffffffffff16815260200190815260200160002061336890919063ffffffff16565b50614787818360026133829092919063ffffffff16565b50808273ffffffffffffffffffffffffffffffffffffffff16600073ffffffffffffffffffffffffffffffffffffffff167fddf252ad1be2c89b69c2b068fc378daa952ba7f163c4a11628f55a4df523b3ef60405160405180910390a45050565b828054600181600116156101000203166002900490600052602060002090601f016020900481019282601f1061482957805160ff1916838001178555614857565b82800160010185558215614857579182015b8281111561485657825182559160200191906001019061483b565b5b5090506148649190614868565b5090565b5b80821115614881576000816000905550600101614869565b509056fe456e756d657261626c655365743a20696e646578206f7574206f6620626f756e64734e756d6265722070757263686173652065786365656473206d617820696e206f6e65207472616e73616374696f6e4552433732313a207472616e7366657220746f206e6f6e20455243373231526563656976657220696d706c656d656e7465724f776e61626c653a206e6577206f776e657220697320746865207a65726f20616464726573734552433732313a207472616e7366657220746f20746865207a65726f2061646472657373416464726573733a20696e73756666696369656e742062616c616e636520666f722063616c6c4552433732313a206f70657261746f7220717565727920666f72206e6f6e6578697374656e7420746f6b656e4552433732313a20617070726f76652063616c6c6572206973206e6f74206f776e6572206e6f7220617070726f76656420666f7220616c6c4552433732313a2062616c616e636520717565727920666f7220746865207a65726f20616464726573734552433732313a206f776e657220717565727920666f72206e6f6e6578697374656e7420746f6b656e456e756d657261626c654d61703a20696e646578206f7574206f6620626f756e6473536166654d6174683a206d756c7469706c69636174696f6e206f766572666c6f774552433732313a20617070726f76656420717565727920666f72206e6f6e6578697374656e7420746f6b656e4552433732313a207472616e73666572206f6620746f6b656e2074686174206973206e6f74206f776e4552433732314d657461646174613a2055524920717565727920666f72206e6f6e6578697374656e7420746f6b656e507572636861736520776f756c64206578636565642070726573616c6520737570706c794552433732313a20617070726f76616c20746f2063757272656e74206f776e65724552433732313a207472616e736665722063616c6c6572206973206e6f74206f776e6572206e6f7220617070726f766564a26469706673582212200ca33ed411b90dc769c6f0281a0a43c3b1493e9cbc6bbe1654a1e38296e261b964736f6c634300070300334552433732313a207472616e7366657220746f206e6f6e20455243373231526563656976657220696d706c656d656e746572416464726573733a20696e73756666696369656e742062616c616e636520666f722063616c6c",
  "linkReferences": {},
  "deployedLinkReferences": {}
}