{
  "_format": "hh-sol-artifact-1",
  "contractName": "Four44Test",
  "sourceName": "contracts/FourFourFour.sol",
  "abi": [
    {
      "inputs": [],
      "stateMutability": "nonpayable",
      "type": "constructor"
    },
    {
      "anonymous": false,
      "inputs": [
        {
          "indexed": true,
          "internalType": "address",
          "name": "owner",
          "type": "address"
        },
        {
          "indexed": true,
          "internalType": "address",
          "name": "approved",
          "type": "address"
        },
        {
          "indexed": true,
          "internalType": "uint256",
          "name": "tokenId",
          "type": "uint256"
        }
      ],
      "name": "Approval",
      "type": "event"
    },
    {
      "anonymous": false,
      "inputs": [
        {
          "indexed": true,
          "internalType": "address",
          "name": "owner",
          "type": "address"
        },
        {
          "indexed": true,
          "internalType": "address",
          "name": "operator",
          "type": "address"
        },
        {
          "indexed": false,
          "internalType": "bool",
          "name": "approved",
          "type": "bool"
        }
      ],
      "name": "ApprovalForAll",
      "type": "event"
    },
    {
      "anonymous": false,
      "inputs": [
        {
          "indexed": true,
          "internalType": "address",
          "name": "previousOwner",
          "type": "address"
        },
        {
          "indexed": true,
          "internalType": "address",
          "name": "newOwner",
          "type": "address"
        }
      ],
      "name": "OwnershipTransferred",
      "type": "event"
    },
    {
      "anonymous": false,
      "inputs": [
        {
          "indexed": true,
          "internalType": "address",
          "name": "from",
          "type": "address"
        },
        {
          "indexed": true,
          "internalType": "address",
          "name": "to",
          "type": "address"
        },
        {
          "indexed": true,
          "internalType": "uint256",
          "name": "tokenId",
          "type": "uint256"
        }
      ],
      "name": "Transfer",
      "type": "event"
    },
    {
      "inputs": [],
      "name": "FourProvenance",
      "outputs": [
        {
          "internalType": "string",
          "name": "",
          "type": "string"
        }
      ],
      "stateMutability": "view",
      "type": "function"
    },
    {
      "inputs": [
        {
          "internalType": "address",
          "name": "to",
          "type": "address"
        },
        {
          "internalType": "uint256",
          "name": "tokenId",
          "type": "uint256"
        }
      ],
      "name": "approve",
      "outputs": [],
      "stateMutability": "nonpayable",
      "type": "function"
    },
    {
      "inputs": [
        {
          "internalType": "address",
          "name": "owner",
          "type": "address"
        }
      ],
      "name": "balanceOf",
      "outputs": [
        {
          "internalType": "uint256",
          "name": "",
          "type": "uint256"
        }
      ],
      "stateMutability": "view",
      "type": "function"
    },
    {
      "inputs": [],
      "name": "baseURI",
      "outputs": [
        {
          "internalType": "string",
          "name": "",
          "type": "string"
        }
      ],
      "stateMutability": "view",
      "type": "function"
    },
    {
      "inputs": [],
      "name": "flipPremintState",
      "outputs": [],
      "stateMutability": "nonpayable",
      "type": "function"
    },
    {
      "inputs": [],
      "name": "flipSaleState",
      "outputs": [],
      "stateMutability": "nonpayable",
      "type": "function"
    },
    {
      "inputs": [],
      "name": "flipStoreIsOpen",
      "outputs": [],
      "stateMutability": "nonpayable",
      "type": "function"
    },
    {
      "inputs": [
        {
          "internalType": "uint256",
          "name": "tokenId",
          "type": "uint256"
        }
      ],
      "name": "getApproved",
      "outputs": [
        {
          "internalType": "address",
          "name": "",
          "type": "address"
        }
      ],
      "stateMutability": "view",
      "type": "function"
    },
    {
      "inputs": [
        {
          "internalType": "address",
          "name": "owner",
          "type": "address"
        },
        {
          "internalType": "address",
          "name": "operator",
          "type": "address"
        }
      ],
      "name": "isApprovedForAll",
      "outputs": [
        {
          "internalType": "bool",
          "name": "",
          "type": "bool"
        }
      ],
      "stateMutability": "view",
      "type": "function"
    },
    {
      "inputs": [
        {
          "internalType": "uint256",
          "name": "numberOfTokens",
          "type": "uint256"
        }
      ],
      "name": "mainSaleMint",
      "outputs": [],
      "stateMutability": "payable",
      "type": "function"
    },
    {
      "inputs": [],
      "name": "maxNumPurchase",
      "outputs": [
        {
          "internalType": "uint256",
          "name": "",
          "type": "uint256"
        }
      ],
      "stateMutability": "view",
      "type": "function"
    },
    {
      "inputs": [],
      "name": "name",
      "outputs": [
        {
          "internalType": "string",
          "name": "",
          "type": "string"
        }
      ],
      "stateMutability": "view",
      "type": "function"
    },
    {
      "inputs": [],
      "name": "owner",
      "outputs": [
        {
          "internalType": "address",
          "name": "",
          "type": "address"
        }
      ],
      "stateMutability": "view",
      "type": "function"
    },
    {
      "inputs": [
        {
          "internalType": "uint256",
          "name": "tokenId",
          "type": "uint256"
        }
      ],
      "name": "ownerOf",
      "outputs": [
        {
          "internalType": "address",
          "name": "",
          "type": "address"
        }
      ],
      "stateMutability": "view",
      "type": "function"
    },
    {
      "inputs": [],
      "name": "premintPrice",
      "outputs": [
        {
          "internalType": "uint256",
          "name": "",
          "type": "uint256"
        }
      ],
      "stateMutability": "view",
      "type": "function"
    },
    {
      "inputs": [],
      "name": "presaleIsActive",
      "outputs": [
        {
          "internalType": "bool",
          "name": "",
          "type": "bool"
        }
      ],
      "stateMutability": "view",
      "type": "function"
    },
    {
      "inputs": [],
      "name": "presaleLimit",
      "outputs": [
        {
          "internalType": "uint256",
          "name": "",
          "type": "uint256"
        }
      ],
      "stateMutability": "view",
      "type": "function"
    },
    {
      "inputs": [
        {
          "internalType": "uint256",
          "name": "numberOfTokens",
          "type": "uint256"
        }
      ],
      "name": "presaleMint",
      "outputs": [],
      "stateMutability": "payable",
      "type": "function"
    },
    {
      "inputs": [],
      "name": "renounceOwnership",
      "outputs": [],
      "stateMutability": "nonpayable",
      "type": "function"
    },
    {
      "inputs": [
        {
          "internalType": "address",
          "name": "from",
          "type": "address"
        },
        {
          "internalType": "address",
          "name": "to",
          "type": "address"
        },
        {
          "internalType": "uint256",
          "name": "tokenId",
          "type": "uint256"
        }
      ],
      "name": "safeTransferFrom",
      "outputs": [],
      "stateMutability": "nonpayable",
      "type": "function"
    },
    {
      "inputs": [
        {
          "internalType": "address",
          "name": "from",
          "type": "address"
        },
        {
          "internalType": "address",
          "name": "to",
          "type": "address"
        },
        {
          "internalType": "uint256",
          "name": "tokenId",
          "type": "uint256"
        },
        {
          "internalType": "bytes",
          "name": "_data",
          "type": "bytes"
        }
      ],
      "name": "safeTransferFrom",
      "outputs": [],
      "stateMutability": "nonpayable",
      "type": "function"
    },
    {
      "inputs": [],
      "name": "saleIsActive",
      "outputs": [
        {
          "internalType": "bool",
          "name": "",
          "type": "bool"
        }
      ],
      "stateMutability": "view",
      "type": "function"
    },
    {
      "inputs": [],
      "name": "saleLimit",
      "outputs": [
        {
          "internalType": "uint256",
          "name": "",
          "type": "uint256"
        }
      ],
      "stateMutability": "view",
      "type": "function"
    },
    {
      "inputs": [],
      "name": "salePrice",
      "outputs": [
        {
          "internalType": "uint256",
          "name": "",
          "type": "uint256"
        }
      ],
      "stateMutability": "view",
      "type": "function"
    },
    {
      "inputs": [
        {
          "internalType": "address",
          "name": "operator",
          "type": "address"
        },
        {
          "internalType": "bool",
          "name": "approved",
          "type": "bool"
        }
      ],
      "name": "setApprovalForAll",
      "outputs": [],
      "stateMutability": "nonpayable",
      "type": "function"
    },
    {
      "inputs": [
        {
          "internalType": "string",
          "name": "baseURI",
          "type": "string"
        }
      ],
      "name": "setBaseURI",
      "outputs": [],
      "stateMutability": "nonpayable",
      "type": "function"
    },
    {
      "inputs": [
        {
          "internalType": "string",
          "name": "provenanceHash",
          "type": "string"
        }
      ],
      "name": "setProvenanceHash",
      "outputs": [],
      "stateMutability": "nonpayable",
      "type": "function"
    },
    {
      "inputs": [],
      "name": "storeIsOpen",
      "outputs": [
        {
          "internalType": "bool",
          "name": "",
          "type": "bool"
        }
      ],
      "stateMutability": "view",
      "type": "function"
    },
    {
      "inputs": [
        {
          "internalType": "bytes4",
          "name": "interfaceId",
          "type": "bytes4"
        }
      ],
      "name": "supportsInterface",
      "outputs": [
        {
          "internalType": "bool",
          "name": "",
          "type": "bool"
        }
      ],
      "stateMutability": "view",
      "type": "function"
    },
    {
      "inputs": [],
      "name": "symbol",
      "outputs": [
        {
          "internalType": "string",
          "name": "",
          "type": "string"
        }
      ],
      "stateMutability": "view",
      "type": "function"
    },
    {
      "inputs": [
        {
          "internalType": "uint256",
          "name": "index",
          "type": "uint256"
        }
      ],
      "name": "tokenByIndex",
      "outputs": [
        {
          "internalType": "uint256",
          "name": "",
          "type": "uint256"
        }
      ],
      "stateMutability": "view",
      "type": "function"
    },
    {
      "inputs": [
        {
          "internalType": "address",
          "name": "owner",
          "type": "address"
        },
        {
          "internalType": "uint256",
          "name": "index",
          "type": "uint256"
        }
      ],
      "name": "tokenOfOwnerByIndex",
      "outputs": [
        {
          "internalType": "uint256",
          "name": "",
          "type": "uint256"
        }
      ],
      "stateMutability": "view",
      "type": "function"
    },
    {
      "inputs": [
        {
          "internalType": "uint256",
          "name": "tokenId",
          "type": "uint256"
        }
      ],
      "name": "tokenURI",
      "outputs": [
        {
          "internalType": "string",
          "name": "",
          "type": "string"
        }
      ],
      "stateMutability": "view",
      "type": "function"
    },
    {
      "inputs": [
        {
          "internalType": "address",
          "name": "_owner",
          "type": "address"
        }
      ],
      "name": "tokensOfOwner",
      "outputs": [
        {
          "internalType": "uint256[]",
          "name": "",
          "type": "uint256[]"
        }
      ],
      "stateMutability": "view",
      "type": "function"
    },
    {
      "inputs": [],
      "name": "totalSupply",
      "outputs": [
        {
          "internalType": "uint256",
          "name": "",
          "type": "uint256"
        }
      ],
      "stateMutability": "view",
      "type": "function"
    },
    {
      "inputs": [
        {
          "internalType": "address",
          "name": "from",
          "type": "address"
        },
        {
          "internalType": "address",
          "name": "to",
          "type": "address"
        },
        {
          "internalType": "uint256",
          "name": "tokenId",
          "type": "uint256"
        }
      ],
      "name": "transferFrom",
      "outputs": [],
      "stateMutability": "nonpayable",
      "type": "function"
    },
    {
      "inputs": [
        {
          "internalType": "address",
          "name": "newOwner",
          "type": "address"
        }
      ],
      "name": "transferOwnership",
      "outputs": [],
      "stateMutability": "nonpayable",
      "type": "function"
    },
    {
      "inputs": [
        {
          "internalType": "address",
          "name": "_whitelistedAddress",
          "type": "address"
        }
      ],
      "name": "verifyUser",
      "outputs": [
        {
          "internalType": "bool",
          "name": "",
          "type": "bool"
        }
      ],
      "stateMutability": "view",
      "type": "function"
    },
    {
      "inputs": [
        {
          "internalType": "address[]",
          "name": "users",
          "type": "address[]"
        }
      ],
      "name": "whitelistAddress",
      "outputs": [],
      "stateMutability": "nonpayable",
      "type": "function"
    },
    {
      "inputs": [],
      "name": "whitelistEnabled",
      "outputs": [
        {
          "internalType": "bool",
          "name": "",
          "type": "bool"
        }
      ],
      "stateMutability": "view",
      "type": "function"
    },
    {
      "inputs": [],
      "name": "withdrawAll",
      "outputs": [],
      "stateMutability": "payable",
      "type": "function"
    }
  ],
  "bytecode": "0x608060405273177d785412484dbc346a9cc56e0eac4f156aa911600b60006101000a81548173ffffffffffffffffffffffffffffffffffffffff021916908373ffffffffffffffffffffffffffffffffffffffff16021790555073b5c79552b8cf6865cc916ee4c7ac620cfcd794ed600c60006101000a81548173ffffffffffffffffffffffffffffffffffffffff021916908373ffffffffffffffffffffffffffffffffffffffff160217905550738626f6940e2eb28930efb4cef49b2d1f2c9c1199600d60006101000a81548173ffffffffffffffffffffffffffffffffffffffff021916908373ffffffffffffffffffffffffffffffffffffffff1602179055506000600d60146101000a81548160ff0219169083151502179055506000600d60156101000a81548160ff0219169083151502179055506000600d60166101000a81548160ff0219169083151502179055506001600d60176101000a81548160ff02191690831515021790555060405180602001604052806000815250600e90805190602001906200019692919062000ea2565b50348015620001a457600080fd5b506040518060400160405280600881526020017f466f7572546573740000000000000000000000000000000000000000000000008152506040518060400160405280600481526020017f466f757200000000000000000000000000000000000000000000000000000000815250620002296301ffc9a760e01b6200038a60201b60201c565b81600690805190602001906200024192919062000ea2565b5080600790805190602001906200025a92919062000ea2565b50620002736380ac58cd60e01b6200038a60201b60201c565b6200028b635b5e139f60e01b6200038a60201b60201c565b620002a363780e9d6360e01b6200038a60201b60201c565b50506000620002b76200049360201b60201c565b905080600a60006101000a81548173ffffffffffffffffffffffffffffffffffffffff021916908373ffffffffffffffffffffffffffffffffffffffff1602179055508073ffffffffffffffffffffffffffffffffffffffff16600073ffffffffffffffffffffffffffffffffffffffff167f8be0079c531659141344cd1fd0a4f28419497f9722a3daafe3b4186f6b6457e060405160405180910390a35060005b600a81101562000383576200037533826200049b60201b60201c565b808060010191505062000359565b5062000f48565b63ffffffff60e01b817bffffffffffffffffffffffffffffffffffffffffffffffffffffffff1916141562000427576040517f08c379a000000000000000000000000000000000000000000000000000000000815260040180806020018281038252601c8152602001807f4552433136353a20696e76616c696420696e746572666163652069640000000081525060200191505060405180910390fd5b6001600080837bffffffffffffffffffffffffffffffffffffffffffffffffffffffff19167bffffffffffffffffffffffffffffffffffffffffffffffffffffffff1916815260200190815260200160002060006101000a81548160ff02191690831515021790555050565b600033905090565b620004bd828260405180602001604052806000815250620004c160201b60201c565b5050565b620004d383836200054460201b60201c565b620004e860008484846200075860201b60201c565b6200053f576040517f08c379a0000000000000000000000000000000000000000000000000000000008152600401808060200182810382526032815260200180620057e46032913960400191505060405180910390fd5b505050565b600073ffffffffffffffffffffffffffffffffffffffff168273ffffffffffffffffffffffffffffffffffffffff161415620005e8576040517f08c379a00000000000000000000000000000000000000000000000000000000081526004018080602001828103825260208152602001807f4552433732313a206d696e7420746f20746865207a65726f206164647265737381525060200191505060405180910390fd5b620005f9816200099460201b60201c565b156200066d576040517f08c379a000000000000000000000000000000000000000000000000000000000815260040180806020018281038252601c8152602001807f4552433732313a20746f6b656e20616c7265616479206d696e7465640000000081525060200191505060405180910390fd5b6200068160008383620009b860201b60201c565b620006d981600160008573ffffffffffffffffffffffffffffffffffffffff1673ffffffffffffffffffffffffffffffffffffffff168152602001908152602001600020620009bd60201b620030531790919060201c565b50620006f781836002620009df60201b6200306d179092919060201c565b50808273ffffffffffffffffffffffffffffffffffffffff16600073ffffffffffffffffffffffffffffffffffffffff167fddf252ad1be2c89b69c2b068fc378daa952ba7f163c4a11628f55a4df523b3ef60405160405180910390a45050565b6000620007868473ffffffffffffffffffffffffffffffffffffffff1662000a1c60201b620030a21760201c565b6200079557600190506200098c565b60606200091263150b7a0260e01b620007b36200049360201b60201c565b888787604051602401808573ffffffffffffffffffffffffffffffffffffffff1681526020018473ffffffffffffffffffffffffffffffffffffffff16815260200183815260200180602001828103825283818151815260200191508051906020019080838360005b83811015620008395780820151818401526020810190506200081c565b50505050905090810190601f168015620008675780820380516001836020036101000a031916815260200191505b5095505050505050604051602081830303815290604052907bffffffffffffffffffffffffffffffffffffffffffffffffffffffff19166020820180517bffffffffffffffffffffffffffffffffffffffffffffffffffffffff8381831617835250505050604051806060016040528060328152602001620057e4603291398773ffffffffffffffffffffffffffffffffffffffff1662000a2f60201b620030b5179092919060201c565b905060008180602001905160208110156200092c57600080fd5b8101908080519060200190929190505050905063150b7a0260e01b7bffffffffffffffffffffffffffffffffffffffffffffffffffffffff1916817bffffffffffffffffffffffffffffffffffffffffffffffffffffffff191614925050505b949350505050565b6000620009b182600262000a4f60201b620030cd1790919060201c565b9050919050565b505050565b6000620009d7836000018360001b62000a7160201b60201c565b905092915050565b600062000a13846000018460001b8473ffffffffffffffffffffffffffffffffffffffff1660001b62000aeb60201b60201c565b90509392505050565b600080823b905060008111915050919050565b606062000a46848460008562000bca60201b60201c565b90509392505050565b600062000a69836000018360001b62000d8a60201b60201c565b905092915050565b600062000a85838362000dad60201b60201c565b62000ae057826000018290806001815401808255809150506001900390600052602060002001600090919091909150558260000180549050836001016000848152602001908152602001600020819055506001905062000ae5565b600090505b92915050565b600080846001016000858152602001908152602001600020549050600081141562000b945784600001604051806040016040528086815260200185815250908060018154018082558091505060019003906000526020600020906002020160009091909190915060008201518160000155602082015181600101555050846000018054905085600101600086815260200190815260200160002081905550600191505062000bc3565b8285600001600183038154811062000ba857fe5b90600052602060002090600202016001018190555060009150505b9392505050565b60608247101562000c27576040517f08c379a0000000000000000000000000000000000000000000000000000000008152600401808060200182810382526026815260200180620058166026913960400191505060405180910390fd5b62000c388562000a1c60201b60201c565b62000cab576040517f08c379a000000000000000000000000000000000000000000000000000000000815260040180806020018281038252601d8152602001807f416464726573733a2063616c6c20746f206e6f6e2d636f6e747261637400000081525060200191505060405180910390fd5b600060608673ffffffffffffffffffffffffffffffffffffffff1685876040518082805190602001908083835b6020831062000cfd578051825260208201915060208101905060208303925062000cd8565b6001836020036101000a03801982511681845116808217855250505050505090500191505060006040518083038185875af1925050503d806000811462000d61576040519150601f19603f3d011682016040523d82523d6000602084013e62000d66565b606091505b509150915062000d7e82828662000dd060201b60201c565b92505050949350505050565b600080836001016000848152602001908152602001600020541415905092915050565b600080836001016000848152602001908152602001600020541415905092915050565b6060831562000de25782905062000e9b565b60008351111562000df65782518084602001fd5b816040517f08c379a00000000000000000000000000000000000000000000000000000000081526004018080602001828103825283818151815260200191508051906020019080838360005b8381101562000e5f57808201518184015260208101905062000e42565b50505050905090810190601f16801562000e8d5780820380516001836020036101000a031916815260200191505b509250505060405180910390fd5b9392505050565b828054600181600116156101000203166002900490600052602060002090601f016020900481019282601f1062000ee557805160ff191683800117855562000f16565b8280016001018555821562000f16579182015b8281111562000f1557825182559160200191906001019062000ef8565b5b50905062000f25919062000f29565b5090565b5b8082111562000f4457600081600090555060010162000f2a565b5090565b61488c8062000f586000396000f3fe6080604052600436106102465760003560e01c8063715018a611610139578063b88d4fde116100b6578063e477a54d1161007a578063e477a54d14610fdd578063e985e9c514610ff4578063eb8d24441461107b578063f2fde38b146110a8578063f51f96dd146110f9578063f9c9816f1461112457610246565b8063b88d4fde14610d42578063c87b56dd14610e54578063c9b298f114610f08578063cf1c0e5514610f36578063d5642d6814610f4d57610246565b80638da5cb5b116100fd5780638da5cb5b14610b2157806395d89b4114610b62578063a22cb46514610bf2578063a3db27e214610c4f578063b31d61b014610c7d57610246565b8063715018a614610a045780637e26639f14610a1b578063801d8c9a14610a465780638462151c14610a71578063853828b614610b1757610246565b806334918dfd116101c7578063525b3fe31161018b578063525b3fe3146107b757806355f804b3146107e25780636352211e146108aa5780636c0360eb1461090f57806370a082311461099f57610246565b806334918dfd1461064257806342842e0e146106595780634d813120146106d45780634f6ccce71461073b57806351fb012d1461078a57610246565b80631167a65a1161020e5780631167a65a146104d357806318160ddd1461050057806323b872dd1461052b5780632f745c59146105a657806330f72cd41461061557610246565b806301ffc9a71461024b57806306fdde03146102bb578063081812fc1461034b578063095ea7b3146103b0578063109695231461040b575b600080fd5b34801561025757600080fd5b506102a36004803603602081101561026e57600080fd5b8101908080357bffffffffffffffffffffffffffffffffffffffffffffffffffffffff1916906020019092919050505061114f565b60405180821515815260200191505060405180910390f35b3480156102c757600080fd5b506102d06111b6565b6040518080602001828103825283818151815260200191508051906020019080838360005b838110156103105780820151818401526020810190506102f5565b50505050905090810190601f16801561033d5780820380516001836020036101000a031916815260200191505b509250505060405180910390f35b34801561035757600080fd5b506103846004803603602081101561036e57600080fd5b8101908080359060200190929190505050611258565b604051808273ffffffffffffffffffffffffffffffffffffffff16815260200191505060405180910390f35b3480156103bc57600080fd5b50610409600480360360408110156103d357600080fd5b81019080803573ffffffffffffffffffffffffffffffffffffffff169060200190929190803590602001909291905050506112f3565b005b34801561041757600080fd5b506104d16004803603602081101561042e57600080fd5b810190808035906020019064010000000081111561044b57600080fd5b82018360208201111561045d57600080fd5b8035906020019184600183028401116401000000008311171561047f57600080fd5b91908080601f016020809104026020016040519081016040528093929190818152602001838380828437600081840152601f19601f820116905080830192505050505050509192919290505050611437565b005b3480156104df57600080fd5b506104e8611500565b60405180821515815260200191505060405180910390f35b34801561050c57600080fd5b50610515611513565b6040518082815260200191505060405180910390f35b34801561053757600080fd5b506105a46004803603606081101561054e57600080fd5b81019080803573ffffffffffffffffffffffffffffffffffffffff169060200190929190803573ffffffffffffffffffffffffffffffffffffffff16906020019092919080359060200190929190505050611524565b005b3480156105b257600080fd5b506105ff600480360360408110156105c957600080fd5b81019080803573ffffffffffffffffffffffffffffffffffffffff1690602001909291908035906020019092919050505061159a565b6040518082815260200191505060405180910390f35b34801561062157600080fd5b5061062a6115f5565b60405180821515815260200191505060405180910390f35b34801561064e57600080fd5b50610657611608565b005b34801561066557600080fd5b506106d26004803603606081101561067c57600080fd5b81019080803573ffffffffffffffffffffffffffffffffffffffff169060200190929190803573ffffffffffffffffffffffffffffffffffffffff169060200190929190803590602001909291905050506116e3565b005b3480156106e057600080fd5b50610723600480360360208110156106f757600080fd5b81019080803573ffffffffffffffffffffffffffffffffffffffff169060200190929190505050611703565b60405180821515815260200191505060405180910390f35b34801561074757600080fd5b506107746004803603602081101561075e57600080fd5b810190808035906020019092919050505061175e565b6040518082815260200191505060405180910390f35b34801561079657600080fd5b5061079f611781565b60405180821515815260200191505060405180910390f35b3480156107c357600080fd5b506107cc611794565b6040518082815260200191505060405180910390f35b3480156107ee57600080fd5b506108a86004803603602081101561080557600080fd5b810190808035906020019064010000000081111561082257600080fd5b82018360208201111561083457600080fd5b8035906020019184600183028401116401000000008311171561085657600080fd5b91908080601f016020809104026020016040519081016040528093929190818152602001838380828437600081840152601f19601f82011690508083019250505050505050919291929050505061179a565b005b3480156108b657600080fd5b506108e3600480360360208110156108cd57600080fd5b8101908080359060200190929190505050611855565b604051808273ffffffffffffffffffffffffffffffffffffffff16815260200191505060405180910390f35b34801561091b57600080fd5b5061092461188c565b6040518080602001828103825283818151815260200191508051906020019080838360005b83811015610964578082015181840152602081019050610949565b50505050905090810190601f1680156109915780820380516001836020036101000a031916815260200191505b509250505060405180910390f35b3480156109ab57600080fd5b506109ee600480360360208110156109c257600080fd5b81019080803573ffffffffffffffffffffffffffffffffffffffff16906020019092919050505061192e565b6040518082815260200191505060405180910390f35b348015610a1057600080fd5b50610a19611a03565b005b348015610a2757600080fd5b50610a30611b73565b6040518082815260200191505060405180910390f35b348015610a5257600080fd5b50610a5b611b79565b6040518082815260200191505060405180910390f35b348015610a7d57600080fd5b50610ac060048036036020811015610a9457600080fd5b81019080803573ffffffffffffffffffffffffffffffffffffffff169060200190929190505050611b85565b6040518080602001828103825283818151815260200191508051906020019060200280838360005b83811015610b03578082015181840152602081019050610ae8565b505050509050019250505060405180910390f35b610b1f611c7e565b005b348015610b2d57600080fd5b50610b36611eae565b604051808273ffffffffffffffffffffffffffffffffffffffff16815260200191505060405180910390f35b348015610b6e57600080fd5b50610b77611ed8565b6040518080602001828103825283818151815260200191508051906020019080838360005b83811015610bb7578082015181840152602081019050610b9c565b50505050905090810190601f168015610be45780820380516001836020036101000a031916815260200191505b509250505060405180910390f35b348015610bfe57600080fd5b50610c4d60048036036040811015610c1557600080fd5b81019080803573ffffffffffffffffffffffffffffffffffffffff169060200190929190803515159060200190929190505050611f7a565b005b610c7b60048036036020811015610c6557600080fd5b8101908080359060200190929190505050612130565b005b348015610c8957600080fd5b50610d4060048036036020811015610ca057600080fd5b8101908080359060200190640100000000811115610cbd57600080fd5b820183602082011115610ccf57600080fd5b80359060200191846020830284011164010000000083111715610cf157600080fd5b919080806020026020016040519081016040528093929190818152602001838360200280828437600081840152601f19601f820116905080830192505050505050509192919290505050612485565b005b348015610d4e57600080fd5b50610e5260048036036080811015610d6557600080fd5b81019080803573ffffffffffffffffffffffffffffffffffffffff169060200190929190803573ffffffffffffffffffffffffffffffffffffffff1690602001909291908035906020019092919080359060200190640100000000811115610dcc57600080fd5b820183602082011115610dde57600080fd5b80359060200191846001830284011164010000000083111715610e0057600080fd5b91908080601f016020809104026020016040519081016040528093929190818152602001838380828437600081840152601f19601f8201169050808301925050505050505091929192905050506125bc565b005b348015610e6057600080fd5b50610e8d60048036036020811015610e7757600080fd5b8101908080359060200190929190505050612634565b6040518080602001828103825283818151815260200191508051906020019080838360005b83811015610ecd578082015181840152602081019050610eb2565b50505050905090810190601f168015610efa5780820380516001836020036101000a031916815260200191505b509250505060405180910390f35b610f3460048036036020811015610f1e57600080fd5b8101908080359060200190929190505050612905565b005b348015610f4257600080fd5b50610f4b612b52565b005b348015610f5957600080fd5b50610f62612c2d565b6040518080602001828103825283818151815260200191508051906020019080838360005b83811015610fa2578082015181840152602081019050610f87565b50505050905090810190601f168015610fcf5780820380516001836020036101000a031916815260200191505b509250505060405180910390f35b348015610fe957600080fd5b50610ff2612ccb565b005b34801561100057600080fd5b506110636004803603604081101561101757600080fd5b81019080803573ffffffffffffffffffffffffffffffffffffffff169060200190929190803573ffffffffffffffffffffffffffffffffffffffff169060200190929190505050612da6565b60405180821515815260200191505060405180910390f35b34801561108757600080fd5b50611090612e3a565b60405180821515815260200191505060405180910390f35b3480156110b457600080fd5b506110f7600480360360208110156110cb57600080fd5b81019080803573ffffffffffffffffffffffffffffffffffffffff169060200190929190505050612e4d565b005b34801561110557600080fd5b5061110e613042565b6040518082815260200191505060405180910390f35b34801561113057600080fd5b5061113961304e565b6040518082815260200191505060405180910390f35b6000806000837bffffffffffffffffffffffffffffffffffffffffffffffffffffffff19167bffffffffffffffffffffffffffffffffffffffffffffffffffffffff1916815260200190815260200160002060009054906101000a900460ff169050919050565b606060068054600181600116156101000203166002900480601f01602080910402602001604051908101604052809291908181526020018280546001816001161561010002031660029004801561124e5780601f106112235761010080835404028352916020019161124e565b820191906000526020600020905b81548152906001019060200180831161123157829003601f168201915b5050505050905090565b6000611263826130e7565b6112b8576040517f08c379a000000000000000000000000000000000000000000000000000000000815260040180806020018281038252602c81526020018061475d602c913960400191505060405180910390fd5b6004600083815260200190815260200160002060009054906101000a900473ffffffffffffffffffffffffffffffffffffffff169050919050565b60006112fe82611855565b90508073ffffffffffffffffffffffffffffffffffffffff168373ffffffffffffffffffffffffffffffffffffffff161415611385576040517f08c379a00000000000000000000000000000000000000000000000000000000081526004018080602001828103825260218152602001806148056021913960400191505060405180910390fd5b8073ffffffffffffffffffffffffffffffffffffffff166113a4613104565b73ffffffffffffffffffffffffffffffffffffffff1614806113d357506113d2816113cd613104565b612da6565b5b611428576040517f08c379a000000000000000000000000000000000000000000000000000000000815260040180806020018281038252603881526020018061468f6038913960400191505060405180910390fd5b611432838361310c565b505050565b61143f613104565b73ffffffffffffffffffffffffffffffffffffffff1661145d611eae565b73ffffffffffffffffffffffffffffffffffffffff16146114e6576040517f08c379a00000000000000000000000000000000000000000000000000000000081526004018080602001828103825260208152602001807f4f776e61626c653a2063616c6c6572206973206e6f7420746865206f776e657281525060200191505060405180910390fd5b80600e90805190602001906114fc9291906144d3565b5050565b600d60149054906101000a900460ff1681565b600061151f60026131c5565b905090565b61153561152f613104565b826131da565b61158a576040517f08c379a00000000000000000000000000000000000000000000000000000000081526004018080602001828103825260318152602001806148266031913960400191505060405180910390fd5b6115958383836132ce565b505050565b60006115ed82600160008673ffffffffffffffffffffffffffffffffffffffff1673ffffffffffffffffffffffffffffffffffffffff16815260200190815260200160002061351190919063ffffffff16565b905092915050565b600d60159054906101000a900460ff1681565b611610613104565b73ffffffffffffffffffffffffffffffffffffffff1661162e611eae565b73ffffffffffffffffffffffffffffffffffffffff16146116b7576040517f08c379a00000000000000000000000000000000000000000000000000000000081526004018080602001828103825260208152602001807f4f776e61626c653a2063616c6c6572206973206e6f7420746865206f776e657281525060200191505060405180910390fd5b600d60169054906101000a900460ff1615600d60166101000a81548160ff021916908315150217905550565b6116fe838383604051806020016040528060008152506125bc565b505050565b600080600f60008473ffffffffffffffffffffffffffffffffffffffff1673ffffffffffffffffffffffffffffffffffffffff16815260200190815260200160002060009054906101000a900460ff16905080915050919050565b60008061177583600261352b90919063ffffffff16565b50905080915050919050565b600d60179054906101000a900460ff1681565b6101bc81565b6117a2613104565b73ffffffffffffffffffffffffffffffffffffffff166117c0611eae565b73ffffffffffffffffffffffffffffffffffffffff1614611849576040517f08c379a00000000000000000000000000000000000000000000000000000000081526004018080602001828103825260208152602001807f4f776e61626c653a2063616c6c6572206973206e6f7420746865206f776e657281525060200191505060405180910390fd5b61185281613557565b50565b6000611885826040518060600160405280602981526020016146f16029913960026135719092919063ffffffff16565b9050919050565b606060098054600181600116156101000203166002900480601f0160208091040260200160405190810160405280929190818152602001828054600181600116156101000203166002900480156119245780601f106118f957610100808354040283529160200191611924565b820191906000526020600020905b81548152906001019060200180831161190757829003601f168201915b5050505050905090565b60008073ffffffffffffffffffffffffffffffffffffffff168273ffffffffffffffffffffffffffffffffffffffff1614156119b5576040517f08c379a000000000000000000000000000000000000000000000000000000000815260040180806020018281038252602a8152602001806146c7602a913960400191505060405180910390fd5b6119fc600160008473ffffffffffffffffffffffffffffffffffffffff1673ffffffffffffffffffffffffffffffffffffffff168152602001908152602001600020613590565b9050919050565b611a0b613104565b73ffffffffffffffffffffffffffffffffffffffff16611a29611eae565b73ffffffffffffffffffffffffffffffffffffffff1614611ab2576040517f08c379a00000000000000000000000000000000000000000000000000000000081526004018080602001828103825260208152602001807f4f776e61626c653a2063616c6c6572206973206e6f7420746865206f776e657281525060200191505060405180910390fd5b600073ffffffffffffffffffffffffffffffffffffffff16600a60009054906101000a900473ffffffffffffffffffffffffffffffffffffffff1673ffffffffffffffffffffffffffffffffffffffff167f8be0079c531659141344cd1fd0a4f28419497f9722a3daafe3b4186f6b6457e060405160405180910390a36000600a60006101000a81548173ffffffffffffffffffffffffffffffffffffffff021916908373ffffffffffffffffffffffffffffffffffffffff160217905550565b61115c81565b67011c37937e08000081565b60606000611b928361192e565b90506000811415611bed57600067ffffffffffffffff81118015611bb557600080fd5b50604051908082528060200260200182016040528015611be45781602001602082028036833780820191505090505b50915050611c79565b60608167ffffffffffffffff81118015611c0657600080fd5b50604051908082528060200260200182016040528015611c355781602001602082028036833780820191505090505b50905060005b82811015611c7257611c4d858261159a565b828281518110611c5957fe5b6020026020010181815250508080600101915050611c3b565b8193505050505b919050565b611c86613104565b73ffffffffffffffffffffffffffffffffffffffff16611ca4611eae565b73ffffffffffffffffffffffffffffffffffffffff1614611d2d576040517f08c379a00000000000000000000000000000000000000000000000000000000081526004018080602001828103825260208152602001807f4f776e61626c653a2063616c6c6572206973206e6f7420746865206f776e657281525060200191505060405180910390fd5b600047905060008111611d3f57600080fd5b600b60009054906101000a900473ffffffffffffffffffffffffffffffffffffffff1673ffffffffffffffffffffffffffffffffffffffff166108fc611da26064611d94600a866135a590919063ffffffff16565b61362b90919063ffffffff16565b9081150290604051600060405180830381858888f19350505050611dc557600080fd5b600d60009054906101000a900473ffffffffffffffffffffffffffffffffffffffff1673ffffffffffffffffffffffffffffffffffffffff166108fc611e286064611e1a6005866135a590919063ffffffff16565b61362b90919063ffffffff16565b9081150290604051600060405180830381858888f19350505050611e4b57600080fd5b600c60009054906101000a900473ffffffffffffffffffffffffffffffffffffffff1673ffffffffffffffffffffffffffffffffffffffff166108fc479081150290604051600060405180830381858888f19350505050611eab57600080fd5b50565b6000600a60009054906101000a900473ffffffffffffffffffffffffffffffffffffffff16905090565b606060078054600181600116156101000203166002900480601f016020809104026020016040519081016040528092919081815260200182805460018160011615610100020316600290048015611f705780601f10611f4557610100808354040283529160200191611f70565b820191906000526020600020905b815481529060010190602001808311611f5357829003601f168201915b5050505050905090565b611f82613104565b73ffffffffffffffffffffffffffffffffffffffff168273ffffffffffffffffffffffffffffffffffffffff161415612023576040517f08c379a00000000000000000000000000000000000000000000000000000000081526004018080602001828103825260198152602001807f4552433732313a20617070726f766520746f2063616c6c65720000000000000081525060200191505060405180910390fd5b8060056000612030613104565b73ffffffffffffffffffffffffffffffffffffffff1673ffffffffffffffffffffffffffffffffffffffff16815260200190815260200160002060008473ffffffffffffffffffffffffffffffffffffffff1673ffffffffffffffffffffffffffffffffffffffff16815260200190815260200160002060006101000a81548160ff0219169083151502179055508173ffffffffffffffffffffffffffffffffffffffff166120dd613104565b73ffffffffffffffffffffffffffffffffffffffff167f17307eab39ab6107e8899845ad3d59bd9653f200f220920489ca2b5937696c318360405180821515815260200191505060405180910390a35050565b600d60149054906101000a900460ff166121b2576040517f08c379a00000000000000000000000000000000000000000000000000000000081526004018080602001828103825260138152602001807f53746f7265206d757374206265206f70656e210000000000000000000000000081525060200191505060405180910390fd5b600d60169054906101000a900460ff16612234576040517f08c379a00000000000000000000000000000000000000000000000000000000081526004018080602001828103825260148152602001807f53616c65206d757374206265206163746976652100000000000000000000000081525060200191505060405180910390fd5b61115c61225182612243611513565b6136b490919063ffffffff16565b11156122c5576040517f08c379a00000000000000000000000000000000000000000000000000000000081526004018080602001828103825260208152602001807f507572636861736520776f756c6420657863656564206d617820737570706c7981525060200191505060405180910390fd5b61115c811061231f576040517f08c379a000000000000000000000000000000000000000000000000000000000815260040180806020018281038252602e815260200180614593602e913960400191505060405180910390fd5b3461233b8267016345785d8a00006135a590919063ffffffff16565b11156123af576040517f08c379a000000000000000000000000000000000000000000000000000000000815260040180806020018281038252601f8152602001807f45746865722076616c75652073656e74206973206e6f7420636f72726563740081525060200191505060405180910390fd5b600d60179054906101000a900460ff1615612440576123cd33611703565b61243f576040517f08c379a00000000000000000000000000000000000000000000000000000000081526004018080602001828103825260198152602001807f55736572206d757374206265206f6e2077686974656c6973740000000000000081525060200191505060405180910390fd5b5b60005b81811015612481576000612455611513565b905061115c612462611513565b101561247357612472338261373c565b5b508080600101915050612443565b5050565b61248d613104565b73ffffffffffffffffffffffffffffffffffffffff166124ab611eae565b73ffffffffffffffffffffffffffffffffffffffff1614612534576040517f08c379a00000000000000000000000000000000000000000000000000000000081526004018080602001828103825260208152602001807f4f776e61626c653a2063616c6c6572206973206e6f7420746865206f776e657281525060200191505060405180910390fd5b60005b81518110156125b8576001600f600084848151811061255257fe5b602002602001015173ffffffffffffffffffffffffffffffffffffffff1673ffffffffffffffffffffffffffffffffffffffff16815260200190815260200160002060006101000a81548160ff0219169083151502179055508080600101915050612537565b5050565b6125cd6125c7613104565b836131da565b612622576040517f08c379a00000000000000000000000000000000000000000000000000000000081526004018080602001828103825260318152602001806148266031913960400191505060405180910390fd5b61262e8484848461375a565b50505050565b606061263f826130e7565b612694576040517f08c379a000000000000000000000000000000000000000000000000000000000815260040180806020018281038252602f8152602001806147b2602f913960400191505060405180910390fd5b6060600860008481526020019081526020016000208054600181600116156101000203166002900480601f01602080910402602001604051908101604052809291908181526020018280546001816001161561010002031660029004801561273d5780601f106127125761010080835404028352916020019161273d565b820191906000526020600020905b81548152906001019060200180831161272057829003601f168201915b50505050509050606061274e61188c565b9050600081511415612764578192505050612900565b6000825111156128355780826040516020018083805190602001908083835b602083106127a65780518252602082019150602081019050602083039250612783565b6001836020036101000a03801982511681845116808217855250505050505090500182805190602001908083835b602083106127f757805182526020820191506020810190506020830392506127d4565b6001836020036101000a0380198251168184511680821785525050505050509050019250505060405160208183030381529060405292505050612900565b8061283f856137cc565b6040516020018083805190602001908083835b602083106128755780518252602082019150602081019050602083039250612852565b6001836020036101000a03801982511681845116808217855250505050505090500182805190602001908083835b602083106128c657805182526020820191506020810190506020830392506128a3565b6001836020036101000a03801982511681845116808217855250505050505090500192505050604051602081830303815290604052925050505b919050565b600d60149054906101000a900460ff16612987576040517f08c379a00000000000000000000000000000000000000000000000000000000081526004018080602001828103825260138152602001807f53746f7265206d757374206265206f70656e210000000000000000000000000081525060200191505060405180910390fd5b600d60159054906101000a900460ff16612a09576040517f08c379a000000000000000000000000000000000000000000000000000000000815260040180806020018281038252601a8152602001807f5072656d696e74696e67206d757374206265206163746976652100000000000081525060200191505060405180910390fd5b6101bc612a2682612a18611513565b6136b490919063ffffffff16565b1115612a7d576040517f08c379a00000000000000000000000000000000000000000000000000000000081526004018080602001828103825260248152602001806147e16024913960400191505060405180910390fd5b34612a998267011c37937e0800006135a590919063ffffffff16565b1115612b0d576040517f08c379a000000000000000000000000000000000000000000000000000000000815260040180806020018281038252601f8152602001807f45746865722076616c75652073656e74206973206e6f7420636f72726563740081525060200191505060405180910390fd5b60005b81811015612b4e576000612b22611513565b90506101bc612b2f611513565b1015612b4057612b3f338261373c565b5b508080600101915050612b10565b5050565b612b5a613104565b73ffffffffffffffffffffffffffffffffffffffff16612b78611eae565b73ffffffffffffffffffffffffffffffffffffffff1614612c01576040517f08c379a00000000000000000000000000000000000000000000000000000000081526004018080602001828103825260208152602001807f4f776e61626c653a2063616c6c6572206973206e6f7420746865206f776e657281525060200191505060405180910390fd5b600d60149054906101000a900460ff1615600d60146101000a81548160ff021916908315150217905550565b600e8054600181600116156101000203166002900480601f016020809104026020016040519081016040528092919081815260200182805460018160011615610100020316600290048015612cc35780601f10612c9857610100808354040283529160200191612cc3565b820191906000526020600020905b815481529060010190602001808311612ca657829003601f168201915b505050505081565b612cd3613104565b73ffffffffffffffffffffffffffffffffffffffff16612cf1611eae565b73ffffffffffffffffffffffffffffffffffffffff1614612d7a576040517f08c379a00000000000000000000000000000000000000000000000000000000081526004018080602001828103825260208152602001807f4f776e61626c653a2063616c6c6572206973206e6f7420746865206f776e657281525060200191505060405180910390fd5b600d60159054906101000a900460ff1615600d60156101000a81548160ff021916908315150217905550565b6000600560008473ffffffffffffffffffffffffffffffffffffffff1673ffffffffffffffffffffffffffffffffffffffff16815260200190815260200160002060008373ffffffffffffffffffffffffffffffffffffffff1673ffffffffffffffffffffffffffffffffffffffff16815260200190815260200160002060009054906101000a900460ff16905092915050565b600d60169054906101000a900460ff1681565b612e55613104565b73ffffffffffffffffffffffffffffffffffffffff16612e73611eae565b73ffffffffffffffffffffffffffffffffffffffff1614612efc576040517f08c379a00000000000000000000000000000000000000000000000000000000081526004018080602001828103825260208152602001807f4f776e61626c653a2063616c6c6572206973206e6f7420746865206f776e657281525060200191505060405180910390fd5b600073ffffffffffffffffffffffffffffffffffffffff168173ffffffffffffffffffffffffffffffffffffffff161415612f82576040517f08c379a00000000000000000000000000000000000000000000000000000000081526004018080602001828103825260268152602001806145f36026913960400191505060405180910390fd5b8073ffffffffffffffffffffffffffffffffffffffff16600a60009054906101000a900473ffffffffffffffffffffffffffffffffffffffff1673ffffffffffffffffffffffffffffffffffffffff167f8be0079c531659141344cd1fd0a4f28419497f9722a3daafe3b4186f6b6457e060405160405180910390a380600a60006101000a81548173ffffffffffffffffffffffffffffffffffffffff021916908373ffffffffffffffffffffffffffffffffffffffff16021790555050565b67016345785d8a000081565b600f81565b6000613065836000018360001b613913565b905092915050565b6000613099846000018460001b8473ffffffffffffffffffffffffffffffffffffffff1660001b613983565b90509392505050565b600080823b905060008111915050919050565b60606130c48484600085613a5f565b90509392505050565b60006130df836000018360001b613c08565b905092915050565b60006130fd8260026130cd90919063ffffffff16565b9050919050565b600033905090565b816004600083815260200190815260200160002060006101000a81548173ffffffffffffffffffffffffffffffffffffffff021916908373ffffffffffffffffffffffffffffffffffffffff160217905550808273ffffffffffffffffffffffffffffffffffffffff1661317f83611855565b73ffffffffffffffffffffffffffffffffffffffff167f8c5be1e5ebec7d5bd14f71427d1e84f3dd0314c0f7b2291e5b200ac8c7c3b92560405160405180910390a45050565b60006131d382600001613c2b565b9050919050565b60006131e5826130e7565b61323a576040517f08c379a000000000000000000000000000000000000000000000000000000000815260040180806020018281038252602c815260200180614663602c913960400191505060405180910390fd5b600061324583611855565b90508073ffffffffffffffffffffffffffffffffffffffff168473ffffffffffffffffffffffffffffffffffffffff1614806132b457508373ffffffffffffffffffffffffffffffffffffffff1661329c84611258565b73ffffffffffffffffffffffffffffffffffffffff16145b806132c557506132c48185612da6565b5b91505092915050565b8273ffffffffffffffffffffffffffffffffffffffff166132ee82611855565b73ffffffffffffffffffffffffffffffffffffffff161461335a576040517f08c379a00000000000000000000000000000000000000000000000000000000081526004018080602001828103825260298152602001806147896029913960400191505060405180910390fd5b600073ffffffffffffffffffffffffffffffffffffffff168273ffffffffffffffffffffffffffffffffffffffff1614156133e0576040517f08c379a00000000000000000000000000000000000000000000000000000000081526004018080602001828103825260248152602001806146196024913960400191505060405180910390fd5b6133eb838383613c3c565b6133f660008261310c565b61344781600160008673ffffffffffffffffffffffffffffffffffffffff1673ffffffffffffffffffffffffffffffffffffffff168152602001908152602001600020613c4190919063ffffffff16565b5061349981600160008573ffffffffffffffffffffffffffffffffffffffff1673ffffffffffffffffffffffffffffffffffffffff16815260200190815260200160002061305390919063ffffffff16565b506134b08183600261306d9092919063ffffffff16565b50808273ffffffffffffffffffffffffffffffffffffffff168473ffffffffffffffffffffffffffffffffffffffff167fddf252ad1be2c89b69c2b068fc378daa952ba7f163c4a11628f55a4df523b3ef60405160405180910390a4505050565b60006135208360000183613c5b565b60001c905092915050565b60008060008061353e8660000186613cde565b915091508160001c8160001c9350935050509250929050565b806009908051906020019061356d9291906144d3565b5050565b6000613584846000018460001b84613d77565b60001c90509392505050565b600061359e82600001613e6d565b9050919050565b6000808314156135b85760009050613625565b60008284029050828482816135c957fe5b0414613620576040517f08c379a000000000000000000000000000000000000000000000000000000000815260040180806020018281038252602181526020018061473c6021913960400191505060405180910390fd5b809150505b92915050565b60008082116136a2576040517f08c379a000000000000000000000000000000000000000000000000000000000815260040180806020018281038252601a8152602001807f536166654d6174683a206469766973696f6e206279207a65726f00000000000081525060200191505060405180910390fd5b8183816136ab57fe5b04905092915050565b600080828401905083811015613732576040517f08c379a000000000000000000000000000000000000000000000000000000000815260040180806020018281038252601b8152602001807f536166654d6174683a206164646974696f6e206f766572666c6f77000000000081525060200191505060405180910390fd5b8091505092915050565b613756828260405180602001604052806000815250613e7e565b5050565b6137658484846132ce565b61377184848484613eef565b6137c6576040517f08c379a00000000000000000000000000000000000000000000000000000000081526004018080602001828103825260328152602001806145c16032913960400191505060405180910390fd5b50505050565b60606000821415613814576040518060400160405280600181526020017f3000000000000000000000000000000000000000000000000000000000000000815250905061390e565b600082905060005b6000821461383e578080600101915050600a828161383657fe5b04915061381c565b60608167ffffffffffffffff8111801561385757600080fd5b506040519080825280601f01601f19166020018201604052801561388a5781602001600182028036833780820191505090505b50905060006001830390508593505b6000841461390657600a84816138ab57fe5b0660300160f81b828280600190039350815181106138c557fe5b60200101907effffffffffffffffffffffffffffffffffffffffffffffffffffffffffffff1916908160001a905350600a84816138fe57fe5b049350613899565b819450505050505b919050565b600061391f8383614108565b61397857826000018290806001815401808255809150506001900390600052602060002001600090919091909150558260000180549050836001016000848152602001908152602001600020819055506001905061397d565b600090505b92915050565b6000808460010160008581526020019081526020016000205490506000811415613a2a57846000016040518060400160405280868152602001858152509080600181540180825580915050600190039060005260206000209060020201600090919091909150600082015181600001556020820151816001015550508460000180549050856001016000868152602001908152602001600020819055506001915050613a58565b82856000016001830381548110613a3d57fe5b90600052602060002090600202016001018190555060009150505b9392505050565b606082471015613aba576040517f08c379a000000000000000000000000000000000000000000000000000000000815260040180806020018281038252602681526020018061463d6026913960400191505060405180910390fd5b613ac3856130a2565b613b35576040517f08c379a000000000000000000000000000000000000000000000000000000000815260040180806020018281038252601d8152602001807f416464726573733a2063616c6c20746f206e6f6e2d636f6e747261637400000081525060200191505060405180910390fd5b600060608673ffffffffffffffffffffffffffffffffffffffff1685876040518082805190602001908083835b60208310613b855780518252602082019150602081019050602083039250613b62565b6001836020036101000a03801982511681845116808217855250505050505090500191505060006040518083038185875af1925050503d8060008114613be7576040519150601f19603f3d011682016040523d82523d6000602084013e613bec565b606091505b5091509150613bfc82828661412b565b92505050949350505050565b600080836001016000848152602001908152602001600020541415905092915050565b600081600001805490509050919050565b505050565b6000613c53836000018360001b6141f7565b905092915050565b600081836000018054905011613cbc576040517f08c379a00000000000000000000000000000000000000000000000000000000081526004018080602001828103825260228152602001806145716022913960400191505060405180910390fd5b826000018281548110613ccb57fe5b9060005260206000200154905092915050565b60008082846000018054905011613d40576040517f08c379a000000000000000000000000000000000000000000000000000000000815260040180806020018281038252602281526020018061471a6022913960400191505060405180910390fd5b6000846000018481548110613d5157fe5b906000526020600020906002020190508060000154816001015492509250509250929050565b60008084600101600085815260200190815260200160002054905060008114158390613e3e576040517f08c379a00000000000000000000000000000000000000000000000000000000081526004018080602001828103825283818151815260200191508051906020019080838360005b83811015613e03578082015181840152602081019050613de8565b50505050905090810190601f168015613e305780820380516001836020036101000a031916815260200191505b509250505060405180910390fd5b50846000016001820381548110613e5157fe5b9060005260206000209060020201600101549150509392505050565b600081600001805490509050919050565b613e8883836142df565b613e956000848484613eef565b613eea576040517f08c379a00000000000000000000000000000000000000000000000000000000081526004018080602001828103825260328152602001806145c16032913960400191505060405180910390fd5b505050565b6000613f108473ffffffffffffffffffffffffffffffffffffffff166130a2565b613f1d5760019050614100565b606061408763150b7a0260e01b613f32613104565b888787604051602401808573ffffffffffffffffffffffffffffffffffffffff1681526020018473ffffffffffffffffffffffffffffffffffffffff16815260200183815260200180602001828103825283818151815260200191508051906020019080838360005b83811015613fb6578082015181840152602081019050613f9b565b50505050905090810190601f168015613fe35780820380516001836020036101000a031916815260200191505b5095505050505050604051602081830303815290604052907bffffffffffffffffffffffffffffffffffffffffffffffffffffffff19166020820180517bffffffffffffffffffffffffffffffffffffffffffffffffffffffff83818316178352505050506040518060600160405280603281526020016145c1603291398773ffffffffffffffffffffffffffffffffffffffff166130b59092919063ffffffff16565b905060008180602001905160208110156140a057600080fd5b8101908080519060200190929190505050905063150b7a0260e01b7bffffffffffffffffffffffffffffffffffffffffffffffffffffffff1916817bffffffffffffffffffffffffffffffffffffffffffffffffffffffff191614925050505b949350505050565b600080836001016000848152602001908152602001600020541415905092915050565b6060831561413b578290506141f0565b60008351111561414e5782518084602001fd5b816040517f08c379a00000000000000000000000000000000000000000000000000000000081526004018080602001828103825283818151815260200191508051906020019080838360005b838110156141b557808201518184015260208101905061419a565b50505050905090810190601f1680156141e25780820380516001836020036101000a031916815260200191505b509250505060405180910390fd5b9392505050565b600080836001016000848152602001908152602001600020549050600081146142d3576000600182039050600060018660000180549050039050600086600001828154811061424257fe5b906000526020600020015490508087600001848154811061425f57fe5b906000526020600020018190555060018301876001016000838152602001908152602001600020819055508660000180548061429757fe5b600190038181906000526020600020016000905590558660010160008781526020019081526020016000206000905560019450505050506142d9565b60009150505b92915050565b600073ffffffffffffffffffffffffffffffffffffffff168273ffffffffffffffffffffffffffffffffffffffff161415614382576040517f08c379a00000000000000000000000000000000000000000000000000000000081526004018080602001828103825260208152602001807f4552433732313a206d696e7420746f20746865207a65726f206164647265737381525060200191505060405180910390fd5b61438b816130e7565b156143fe576040517f08c379a000000000000000000000000000000000000000000000000000000000815260040180806020018281038252601c8152602001807f4552433732313a20746f6b656e20616c7265616479206d696e7465640000000081525060200191505060405180910390fd5b61440a60008383613c3c565b61445b81600160008573ffffffffffffffffffffffffffffffffffffffff1673ffffffffffffffffffffffffffffffffffffffff16815260200190815260200160002061305390919063ffffffff16565b506144728183600261306d9092919063ffffffff16565b50808273ffffffffffffffffffffffffffffffffffffffff16600073ffffffffffffffffffffffffffffffffffffffff167fddf252ad1be2c89b69c2b068fc378daa952ba7f163c4a11628f55a4df523b3ef60405160405180910390a45050565b828054600181600116156101000203166002900490600052602060002090601f016020900481019282601f1061451457805160ff1916838001178555614542565b82800160010185558215614542579182015b82811115614541578251825591602001919060010190614526565b5b50905061454f9190614553565b5090565b5b8082111561456c576000816000905550600101614554565b509056fe456e756d657261626c655365743a20696e646578206f7574206f6620626f756e64734e756d6265722070757263686173652065786365656473206d617820696e206f6e65207472616e73616374696f6e4552433732313a207472616e7366657220746f206e6f6e20455243373231526563656976657220696d706c656d656e7465724f776e61626c653a206e6577206f776e657220697320746865207a65726f20616464726573734552433732313a207472616e7366657220746f20746865207a65726f2061646472657373416464726573733a20696e73756666696369656e742062616c616e636520666f722063616c6c4552433732313a206f70657261746f7220717565727920666f72206e6f6e6578697374656e7420746f6b656e4552433732313a20617070726f76652063616c6c6572206973206e6f74206f776e6572206e6f7220617070726f76656420666f7220616c6c4552433732313a2062616c616e636520717565727920666f7220746865207a65726f20616464726573734552433732313a206f776e657220717565727920666f72206e6f6e6578697374656e7420746f6b656e456e756d657261626c654d61703a20696e646578206f7574206f6620626f756e6473536166654d6174683a206d756c7469706c69636174696f6e206f766572666c6f774552433732313a20617070726f76656420717565727920666f72206e6f6e6578697374656e7420746f6b656e4552433732313a207472616e73666572206f6620746f6b656e2074686174206973206e6f74206f776e4552433732314d657461646174613a2055524920717565727920666f72206e6f6e6578697374656e7420746f6b656e507572636861736520776f756c64206578636565642070726573616c6520737570706c794552433732313a20617070726f76616c20746f2063757272656e74206f776e65724552433732313a207472616e736665722063616c6c6572206973206e6f74206f776e6572206e6f7220617070726f766564a26469706673582212204f5bbc7f15acdd2bf83222ca96bdffbb46ce3e30cbeecfb344956064a76300b864736f6c634300070300334552433732313a207472616e7366657220746f206e6f6e20455243373231526563656976657220696d706c656d656e746572416464726573733a20696e73756666696369656e742062616c616e636520666f722063616c6c",
  "linkReferences": {},
  "deployedLinkReferences": {}
}